:020000040800F2
:10000000FF7F01204995000849B300084BB3000861
:1000100055B300085BB3000861B30008000000009E
:1000200000000000000000000000000067B30008AE
:100030006DB300080000000071B300088DB3000824
:1000400099950008999500089995000899950008D8
:1000500099950008999500089995000899950008C8
:1000600099950008999500089995000899950008B8
:1000700099950008999500089995000899950008A8
:1000800099950008999500089995000800000000CE
:10009000000000000000000000000000999500082A
:1000A0009995000899950008999500089995000878
:1000B00081B3000875B30008D9B00008999500080D
:1000C0009995000899950008999500089995000858
:1000D00099950008E5B30008F1B30008000000009E
:1000E0009BB300089995000899950008000000004E
:1000F00000000000000000000000000099950008CA
:10010000000000009995000899950008999500084D
:1001100000000000000000000000000000000000DF
:1001200099950008999500089995000899950008F7
:100130009995000800000000000000000000000089
:100140000000000000000000000000009995000879
:1001500099950008999500089995000899950008C7
:100160009995000899950008000000000000000023
:10017000000000000000000000000000000000007F
:100180000000000099950008000000000000000039
:040190009995000835
:1001A00010B5054C237833B9044B13B10448AFF3B1
:1001B00000800123237010BDAC0600200000000069
:1001C0005012010808B5034B1BB103490348AFF3B4
:1001D000008008BD00000000B00600205012010899
:1001E00010F8012B11F8013B012A28BF9A42F7D0E1
:1001F000D01A7047034613F8012B002AFBD1181AB6
:1002000001387047000000000000000000000000FE
:1002100001F0FF01102A2BDB10F0070F08D010F8B7
:10022000013B013A8B422DD010F0070F42B3F6D1BB
:10023000F0B441EA012141EA014122F007047FF0D4
:1002400000070023F0E80256083C85EA010586EA2B
:10025000010685FA47F5A3FA87F586FA47F6A5FA67
:1002600087F68EB9EED1F0BC01F0FF0102F0070273
:1002700032B110F8013B013A83EA010313B1F8D11E
:100280000020704701387047002D06BF35460338FF
:10029000073815F0010F07D1013015F4807F02BF38
:1002A000013015F4C03F0130F0BC0138704700BF89
:1002B000012A10B51C4688BF41F080011346224632
:1002C00006F0D4FB003018BF012010BD012A10B584
:1002D0001C4688BF41F080011346224606F0AEFB63
:1002E000003018BF012010BD08B501220B460F21B8
:1002F000FFF7DEFF003018BF012008BD2DE9F74FE2
:100300000D4601AB022230218346FFF7D1FF18B121
:10031000012003B0BDE8F08F01AB02223621584620
:100320009DF804A09DF80560FFF7C2FF0028EFD1FB
:1003300001AB02223A2158469DF805909DF80480B1
:10034000FFF7B6FF0028E3D101AB0222282158466F
:100350009DF805709DF80440FFF7AAFF0028D7D14B
:100360009DF805109DF8043048EA092843EA012366
:100370000FFA88F81BB2A3EB080306EE903A4FEA97
:100380005A0ACAEB560344EA0724B8EEE67A24B2C6
:1003900006EE903AA4EB080407EE904AF8EEE66AFF
:1003A000B8EEE76A67EE266A07EE90AA86EE867ACE
:1003B000F8EEE77A77EE277AB2EE047A67EE877A7C
:1003C0009FED0B7AF4EEC77AF1EE10FA0BDCF5EE46
:1003D000C07AF1EE10FA09D4FCEEE77A17EE903A03
:1003E0009BB22B8095E74FF47A73FAE70346F8E760
:1003F00000007A442DE9F04F85B00F4603AB02228E
:1004000032210646FFF754FF18B1012005B0BDE8C0
:10041000F08F0DF10B03012235213046FFF748FF25
:100420000028F2D103AB04223C2130469DF80B405A
:100430009DF80CB09DF80D90FFF73AFF0028E4D12D
:100440009DF80E300193022203AB2A2130469DF81D
:100450000DA09DF80C509DF80F80FFF729FF002894
:10046000D3D1230203F4407343EA0B0B9DF80D2014
:100470009DF80C3045EA0A2543EA02232DB21BB24F
:10048000A4015B1B04F4407407EE903A4FEADB0BC7
:1004900044EA0909019BCBEBD909B8EEE77A07EEEC
:1004A000909A43EA0828F8EEE77A0FFA88F8A8EB62
:1004B000050567EE277A07EE105AB8EEC77AC7EE41
:1004C000876A07EE90BAF8EEE77AB2EE047A76EE33
:1004D000A77A67EE877AFDEEE77A17EE903A3B80CF
:1004E00094E737B50D4614460DF107030122272185
:1004F000FFF7DEFE48B99DF80730C3F3400203F072
:1005000001032A70237003B030BD0120FBE713B54F
:1005100001220DF1070320210446FFF7C9FE88B927
:100520009DF8073063F07F038DF8073001220DF14D
:10053000070320212046FFF7C9FE003018BF012025
:1005400002B010BD0120FBE713B501220DF1070336
:1005500020210446FFF7ACFE88B99DF8073003F070
:100560007F038DF8073001220DF10703202120467B
:10057000FFF7ACFE003018BF012002B010BD012013
:10058000FBE713B501220C460DF107032021FFF70D
:100590008FFE30B99DF8073003F00303237002B0DB
:1005A00010BD0120FBE700000A4608B501460248DD
:1005B0000FF014F9FEE700BFC8140108012937B590
:1005C00005460C4604D940F263211048FFF7ECFFC2
:1005D0000DF1070301222021FFF76AFE98B99DF86B
:1005E000071021F0040141EA84018DF807100DF194
:1005F0000703012220212846FFF768FE003018BFBC
:10060000012003B030BD0120FBE700BFF514010855
:10061000032937B505460C4604D940F2BA210F48E4
:10062000FFF7C2FF0DF1070301222021FFF740FE73
:1006300090B99DF8073023F003031C4301220DF10C
:100640000703202128468DF80740FFF73FFE0030C2
:1006500018BF012003B030BD0120FBE7F5140108ED
:1006600013B50C460DF107020DF10601FFF739FF36
:10067000012806D09DF8060028B1012805D1207078
:10068000002002B010BD2070FBE70120F9E713B590
:100690000C460DF107020DF10601FFF722FF0128BC
:1006A00006D09DF8070028B1012805D12070002050
:1006B00002B010BD2070FBE70120F9E707B502ABDF
:1006C00003F8012D0122FFF701FE431E5842584155
:1006D00003B05DF804FBFFF7F1BF08B51346012234
:1006E000FFF7E6FD431E5842584108BDFFF7F5BF2E
:1006F000F7EE007AB4EEE70AF1EE10FA08B50ED97B
:10070000F1EE0C7AB4EEE70AF1EE10FA94BF022192
:100710000321FFF77DFF431E5842584108BD0121C8
:10072000F7E708B541B1042908D80321FFF770FFA6
:10073000431E5842584108BD0121F7E70120FAE75E
:10074000FFF7EFBF13B50C460DF10701FFF719FFD7
:1007500001280AD09DF80730032B0FD8DFE803F0FB
:1007600002070A0C00232360002002B010BD4FF0E6
:100770007E53F8E7034BF6E7034BF4E7034B2360A4
:100780000120F2E70000E04000004841000080BF87
:10079000FFF7D8BF37B50D4602A9002421F8024D56
:1007A000FFF7ACFD01280CD0BDF8063007EE903AFB
:1007B000F8EE677AF2EE046A87EEA67A204685EDB7
:1007C000007A03B030BD13B502A9002301F8013D42
:1007D0000446FFF789FD012805D020789DF80730F1
:1007E000C01A18BF012002B010BDFFF7ECBF37B52B
:1007F0000D4602A9002421F8024DFFF7FBFD012858
:100800000CD0BDF9063007EE903AF8EEE77AF2EE3A
:10081000046A87EEA67A204685ED007A03B030BDE3
:1008200010B50379044683B183681B681B68DB78C5
:1008300033B1A3681B681B6800209870207110BD3D
:10084000FFF782FE0128F4D1F9E71846F7E783683D
:1008500010B51B681B685B78044633B1A3681B683E
:100860001B6800201870E07010BDFFF7D9FF012849
:10087000F4D1F9E710B50379012B04460AD0836857
:100880001B681B68DB783BB1A3681B681A680123EF
:1008900093702371002003E0FFF739FE0128F3D1A4
:1008A00010BD10B50446FFF78EFF012801D10120CD
:1008B00010BD2046FFF748FE0128F8D00121204650
:1008C000FFF77CFE0128F2D000212046FFF729FF28
:1008D000431E58425841EBE7836810B51B681B68FC
:1008E0005B7804463BB1A3681B681A680123137048
:1008F0000020E37010BDFFF7D4FF0128F3D1F9E722
:10090000836810B51B681B681B7804463BB1A3685D
:100910001B681A68012353700020E37010BDFFF7B5
:10092000C0FF0128F3D1F9E7FFF74DBFFFF70ABF7A
:10093000FFF7F7BE08B5FFF7D7FC431E58425841F2
:1009400008BD08B5FFF7D0FC431E5842584108BD0A
:10095000F7EE007AB4EEE70AF1EE10FA08B50ED918
:10096000F1EE0C7AB4EEE70AF1EE10FA94BF022130
:100970000321FFF74DFE431E5842584108BD012197
:10098000F7E710B50379012B04460AD083681B688A
:100990001B689B783BB1A3681B681A680123D3705E
:1009A0002371002003E0FFF7B2FD0128F3D110BD51
:1009B00010B50379044683B183681B681B689B7874
:1009C00033B1A3681B681B680020D870207110BD6C
:1009D000FFF7BAFD0128F4D1F9E71846F7E7836875
:1009E00010B51B681B681B78044633B1A3681B68ED
:1009F0001B6800205870E07010BDFFF7D9FF012878
:100A0000F4D1F9E7012B08B588BF41F0800106F069
:100A100015F8B0FA80F0400908BD012B08B588BF71
:100A200041F0800106F022F8B0FA80F0400908BDDC
:100A300008B50A4601230F21FFF7EFFF003018BF6A
:100A4000012008BD37B501230C460DF10702222114
:100A50000546FFF7E2FF80B19DF8073023F003035E
:100A60001C430DF107020123222128468DF807407F
:100A7000FFF7C8FF003018BF012003B030BD37B505
:100A800001230C460DF1070224210546FFF7C5FF9F
:100A900080B19DF8073023F040031C430DF107029D
:100AA0000123242128468DF80740FFF7ABFF0030D3
:100AB00018BF012003B030BD37B501230C460DF13E
:100AC000070221210546FFF7A8FF80B19DF80730F6
:100AD00023F060031C430DF1070201232121284666
:100AE0008DF80740FFF78EFF003018BF012003B0DC
:100AF00030BD10B50A460C4601232121FFF78DFFBA
:100B000020B1237803F060032370012010BD37B5B6
:100B100001230C460DF1070220210546FFF77DFF5A
:100B200080B19DF8073023F01C031C430DF1070230
:100B30000123202128468DF80740FFF763FF00308E
:100B400018BF012003B030BD10B50A460C46012382
:100B50002021FFF762FF20B1237803F01C032370EC
:100B6000012010BD70B506460D46282401232A46F3
:100B700021463046FFF751FF78B1611C0123EA1886
:100B8000C9B23046FFF749FF38B10234E4B22E2C27
:100B900005F10205EAD1012070BD0020FCE737B560
:100BA00001230C460DF1070220210546FFF735FF12
:100BB00080B19DF8073023F060031C430DF107025C
:100BC0000123202128468DF80740FFF71BFF003046
:100BD00018BF012003B030BD37B501230C460DF11D
:100BE000070220210546FFF718FF80B19DF8073066
:100BF00003F07F031C430DF1070201232021284647
:100C00008DF80740FFF7FEFE003018BF012003B04B
:100C100030BD10B50A460C4601232721FFF7FDFE23
:100C200020B1237803F008032370012010BD13B511
:100C30000C460DF10701FFF7ECFF60B19DF80700CE
:100C400038B108284FF0010001D12070002002B017
:100C500010BD2070FBE70120F9E713B502AC0123BA
:100C600004F8012D2246FFF7CDFEB0FA80F04009CE
:100C700002B010BD08B50123FFF7CFFEB0FA80F037
:100C8000400908BDF1EE007AB4EEE70AF1EE10FA81
:100C900008B515D9F2EE007AB4EEE70AF1EE10FAD3
:100CA00010D9F2EE087AB4EEE70AF1EE10FA94BF2A
:100CB00040216021FFF700FFB0FA80F0400908BD35
:100CC0000021F7E72021F5E7022908B508D004291B
:100CD00008D049B9FFF7F0FEB0FA80F0400908BD2E
:100CE0002021F7E74021F5E70120F8E713B50C468E
:100CF0000DF10701FFF7FDFE38B19DF80700202830
:100D000011D004D850B10B4B2360012009E04028DA
:100D10000ED06028F7D14FF0834306E04FF08143B7
:100D2000236002B010BD4FF0824323600020F8E73B
:100D3000014BFAE7000080BF0000404113B50C46AC
:100D40000DF10701FFF7D5FEB8B19DF80700202887
:100D50000DD002D838B10A4B0AE040280BD06028E9
:100D6000F9D1084B04E0084B236002B010BD074BDB
:100D700023600020F9E7064BFAE70120F5E700BF02
:100D8000000080BFE17A143F295C0F3EE17A943E77
:100D9000F628DC3EF6EE047AB4EEE70AF1EE10FA3D
:100DA00008B531D9F7EE047AB4EEE70AF1EE10FA9D
:100DB0002CD9F0EE047AB4EEE70AF1EE10FA27D956
:100DC000F1EE047AB4EEE70AF1EE10FA22D9F2EE6F
:100DD000047AB4EEE70AF1EE10FA1DD9F3EE047AC4
:100DE000B4EEE70AF1EE10FA18D9DFED0D7AB4EEA1
:100DF000E70AF1EE10FA94BF18211C21FFF787FED5
:100E0000B0FA80F0400908BD0021F7E70421F5E7BA
:100E10000821F3E70C21F1E71021EFE71421EDE7BA
:100E20000000204208B5042911D8DFE801F00E03C4
:100E30000A0C0C001021FFF76AFEB0FA80F040099E
:100E400008BD1821F7E71C21F5E70421F3E701208D
:100E5000F6E7000013B50C460DF10701FFF774FE2D
:100E6000A0B19DF807000C281ED008D8042815D082
:100E7000082817D040B9104B236002B010BD1428C9
:100E800016D005D8102811D00C4B23600120F4E7B0
:100E900018280FD01C28F7D1094B00E0094B23601C
:100EA0000020EAE7084BFAE7084BF8E7084BF6E7BB
:100EB000084BF4E7084BF2E70000203F000080BF3A
:100EC0000000A0420000A03F000020400000A04021
:100ED000000020410000A0410000204237B500245E
:100EE0000D4669460094ADF80440FFF73BFEB8B1EB
:100EF0009DF801209DF8003003EB02232B809DF824
:100F000003209DF8023003EB02236B809DF805203F
:100F10009DF8043003EB0223AB80204603B030BDC4
:100F20000120FBE713B50C466946FFF7D7FF012800
:100F300009D0BDF800302380BDF802306380BDF8D1
:100F40000430A380002002B010BD30B585B000236E
:100F50000C4602A905460193FFF7C0FF012802D104
:100F6000012005B030BD01A92846FFF7E7FE0128A2
:100F7000F6D0BDF90830DDED016A07EE103AB8EEA3
:100F8000C77ABDF90A3027EE267A0020BDEEC77A6F
:100F900084ED007A07EE103ABDF90C3007EE903A76
:100FA000B8EEC77AF8EEE77A27EE267A67EEA67AE9
:100FB000BDEEC77AFDEEE77A84ED017AC4ED027AE0
:100FC000CFE708B5FFF734FDB0FA80F0400908BD5F
:100FD00013B502A9002301F8013D0446FFF7F1FF14
:100FE000012805D020789DF80730C01A18BF0120CD
:100FF00002B010BD10B50379044633B10221FFF7EA
:1010000021FD20B10020207110BD1846FCE7012011
:10101000FAE710B50446FFF7DBFF012801D10120F4
:1010200010BD2046FFF7E6FF0128F8D00020E07051
:10103000F6E710B50379012B044605D00021FFF730
:1010400001FD012310B12371002010BD1846FCE7FB
:1010500010B50446FFF7BCFF012801D1012010BDE7
:1010600002212046FFF7EEFC0028F7D04021204661
:10107000FFF705FD0028F1D004212046FFF7D2FE3E
:101080000128EBD000212046FFF71EFE0128E5D005
:1010900040212046FFF783FD0028DFD000212046B5
:1010A000FFF79AFD0028D9D00123E3700020D6E78E
:1010B0002DE9F04106460F46154698460024A54204
:1010C00002DC0020BDE8F0813919012308EB04029D
:1010D000C9B2304605F0CAFC08B90134EFE7012077
:1010E000F0E72DE9F04106460F46154698460024E4
:1010F000A54202DC0020BDE8F0813919012308EB8C
:101100000402C9B2304605F099FC08B90134EFE792
:101110000120F0E708B501220B460F21FFF7C8FFB9
:10112000003018BF012008BD37B50C460DF107038C
:1011300001221A210546FFF7BBFF90B99DF8073041
:1011400023F001031C4301220DF107031A21284655
:101150008DF80740FFF7C5FF003018BF012003B02E
:1011600030BD0120FBE737B50C460DF10703012226
:1011700010210546FFF79CFF90B99DF8073023F03A
:1011800070031C4301220DF10703102128468DF83E
:101190000740FFF7A6FF003018BF012003B030BDA5
:1011A0000120FBE713B501220C460DF107031021C6
:1011B000FFF77EFF30B99DF8073003F0700323700E
:1011C00002B010BD0120FBE737B50D460DF1070356
:1011D000012210210446FFF76BFF98B99DF8071014
:1011E00021F0080141EAC5018DF807100DF1070350
:1011F000012210212046FFF774FF003018BF0120A4
:1012000003B030BD0120FBE737B50C460DF10703F5
:10121000012210210546FFF74BFF90B99DF80730DA
:1012200023F004031C4301220DF10703102128467B
:101230008DF80740FFF755FF003018BF012003B0BD
:1012400030BD0120FBE773B501220D460DF1070308
:1012500010210646FFF72CFF044680B99DF80730A1
:1012600023F002031D4301220DF107031021304634
:101270008DF80750FFF735FF204602B070BD0124FE
:10128000FAE737B50D460DF1070301221121044697
:10129000FFF70EFF98B99DF8071021F0400141EAD1
:1012A00085118DF807100DF1070301221121204649
:1012B000FFF717FF003018BF012003B030BD012039
:1012C000FBE737B50D460DF1070301221121044656
:1012D000FFF7EEFE98B99DF8071021F0200141EAD2
:1012E00045118DF807100DF1070301221121204649
:1012F000FFF7F7FE003018BF012003B030BD01201A
:10130000FBE737B50D460DF1070301221121044615
:10131000FFF7CEFE98B99DF8071021F0100141EAC1
:1013200005118DF807100DF1070301221121204648
:10133000FFF7D7FE003018BF012003B030BD0120F9
:10134000FBE737B50D460DF10703012212210446D4
:10135000FFF7AEFE98B99DF8071021F0080141EAA9
:10136000C5018DF807100DF1070301221221204657
:10137000FFF7B7FE003018BF012003B030BD0120D9
:10138000FBE737B50D460DF1070301221221044694
:10139000FFF78EFE98B99DF8071021F0100141EA81
:1013A00005118DF807100DF10703012212212046C7
:1013B000FFF797FE003018BF012003B030BD0120B9
:1013C000FBE737B50D460DF1070301221221044654
:1013D000FFF76EFE98B99DF8071021F0200141EA51
:1013E00045118DF807100DF1070301221221204647
:1013F000FFF777FE003018BF012003B030BD012099
:10140000FBE713B501220C460DF107032721FFF777
:101410004FFE78B99DF8073003F00102627003F0C7
:1014200002022270C3F34012C3F30013A270E370F0
:1014300002B010BD0120FBE713B503220C4601AB3F
:101440002821FFF735FE80B99DF806309DF805206C
:101450001B0443EA02239DF8042013431A0248BFE9
:1014600043F07F43236002B010BD0120FBE713B5BA
:101470000C4601A9FFF7E0FF48B9019A64235343E2
:101480004FF4805293FBF2F3236002B010BD0120B1
:10149000FBE713B502220C4601AB2B21FFF708FE38
:1014A00040B99DF805209DF8043003EB022323800A
:1014B00002B010BD0120FBE713B50C460DF106018B
:1014C000FFF7E7FF38B9BDF906300A2293FBF2F3C4
:1014D000238002B010BD0120FBE737B50C460DF1AB
:1014E0000703012214210546FFF7E2FD90B99DF89C
:1014F000073003F01F031C4301220DF107031421E1
:1015000028468DF80740FFF7ECFD003018BF01209A
:1015100003B030BD0120FBE713B501220C460DF1ED
:1015200007031421FFF7C4FD30B99DF8073023F0FD
:101530001F03237002B010BD0120FBE737B50C4636
:101540000DF10703012214210546FFF7B1FD90B903
:101550009DF8073023F01F031C4301220DF1070300
:10156000142128468DF80740FFF7BBFD003018BF57
:10157000012003B030BD0120FBE710B50B460C463F
:1015800001221421FFF794FD20B9237803F01F03F3
:10159000237010BD0120FCE713B501220C460DF1AC
:1015A00007032621FFF784FDA8B99DF80730DA0963
:1015B0002271C3F3801203F03F03E27023701BB962
:1015C00001236370002303E0202B6070FAD1012314
:1015D000A37002B010BD0120FBE713B50C4601A9B2
:1015E000FFF70FFF01281EBF9DF805302370002074
:1015F00002B010BD13B50C4601A9FFF702FF012888
:101600001EBF9DF804302370002002B010BD07B546
:1016100002AB03F8012D0122FFF763FD431E584280
:10162000584103B05DF804FBFFF7F1BF08B513465E
:101630000122FFF73DFD431E5842584108BDFFF708
:10164000F5BF38B5037904466BB183681B681D6824
:10165000E97819B10020A870207138BDFFF783FD2B
:101660000128F7D1F9E71846F7E738B583681B6812
:101670001C68637805461BB100202070E87038BDF7
:10168000FFF7DFFF0128F7D1F9E738B50379044602
:101690006BB183681B681D68A97819B10020E870D8
:1016A000207138BDFFF75FFD0128F7D1F9E7184633
:1016B000F7E738B583681B681C68237805461BB1BB
:1016C00000206070E87038BDFFF7DFFF0128F7D118
:1016D000F9E7000013B50C460DF10701FFF762FDB5
:1016E000012815D09DF80700202818D006D868B129
:1016F00010280FD00D4B2360012009E0402810D0A6
:10170000502810D03028F5D1094B05E00023236084
:1017100002B010BD4FF07E5323600020F8E7054B68
:10172000FAE7054BF8E7054BF6E700BF000080BF7E
:101730000000C841000020410000484200009642DD
:10174000FFF7C8BF13B502A9002301F8013D044605
:10175000FFF7E0FC012805D020789DF80730C01A7B
:1017600018BF012002B010BDFFF7ECBF08B5FFF7AE
:10177000E5FE431E5842584108BD08B5FFF7FDFE7F
:10178000431E5842584108BD13B50C460DF10701E0
:10179000FFF7C2FE01281EBF9DF80730237000200E
:1017A00002B010BD13B50C466946FFF7F5FE0128DF
:1017B0001EBF9DF800302370002002B010BD13B58D
:1017C0000C466946FFF7E8FE01281EBF9DF804306D
:1017D0002370002002B010BD13B50C466946FFF718
:1017E000DBFE01281EBF9DF803302370002002B0ED
:1017F00010BD13B50C466946FFF7CEFE01281EBF8B
:101800009DF802302370002002B010BD13B50C46C5
:101810006946FFF7C1FE01281EBF9DF80130237005
:10182000002002B010BD0000042811D8DFE800F04D
:1018300003080A0C0E004FF07E530B600020704727
:10184000044BFAE7044BF8E7044BF6E7044BF4E7E4
:1018500001207047000020410000C84100004842BC
:1018600000009642F7EE007AB4EEE70AF1EE10FAC5
:1018700038B504460D4623D9F2EE047AB4EEE70AF1
:10188000F1EE10FA1ED9F3EE097AB4EEE70AF1EEA2
:1018900010FA19D9DFED0D7AB4EEE70AF1EE10FA7D
:1018A00094BF402150212046FFF75DFC012806D05F
:1018B000291D2046FFF70EFF431E5842584138BDF0
:1018C0001021F0E72021EEE73021ECE7000048424C
:1018D00038B50379012B04460CD083681B681D685A
:1018E000294695ED010AFFF7BDFF012803D001232A
:1018F000AB702371002038BD08B582680379126887
:10190000012B116805D1FFF7ADFF431E5842584126
:1019100008BDF7EE007AB4EEE70AF1EE10FA18D936
:10192000F2EE047AB4EEE70AF1EE10FA11D9F3EE12
:10193000097AB4EEE70AF1EE10FA0AD9DFED077A78
:101940009FED077AB4EEE70AF1EE10FA88BFF0EEE9
:10195000477AC1ED017A0020DAE700BF0000484273
:101960000000964238B50379012B04460CD08368F9
:101970001B681D68294695ED010AFFF773FF0128D2
:1019800003D00123EB702371002038BD38B5044625
:10199000154604291AD8DFE801F0170311131500C2
:1019A00020212046FFF7DFFB012806D0291D204615
:1019B000FFF790FE431E5842584138BD3021F0E7F2
:1019C0004021EEE75021ECE71021EAE70120F4E79F
:1019D00010B5826803791268012B0C46126805D194
:1019E000FFF7D4FF431E5842584110BD111D204639
:1019F000FFF71AFFF6E710B5826803791268012B2A
:101A00000C46126805D1FFF7C1FF431E58425841EA
:101A100010BD111D2046FFF707FFF6E738B5044655
:101A20000D46FFF78FFE012801D1012038BD144B70
:101A30002B6001212046FFF777FB0128F5D000211C
:101A40002046FFF790FB0128EFD000212046FFF74A
:101A5000BBFB0128E9D000212046FFF7D5FB012878
:101A6000E3D002212046FFF7EEFB0128DDD0002164
:101A70002046FFF746FC431E58425841D6E700BFB8
:101A80000000C84138B583681B681C686378054648
:101A900023B1012323700020EB7038BD211DFFF717
:101AA000BDFF0128F5D1F8E738B583681B681C68CD
:101AB0002378054623B1012363700020EB7038BD05
:101AC000211DFFF7ABFF0128F5D1F8E72DE9F34120
:101AD00002AC002544F8045D8846214607461646B8
:101AE000FFF7C5FC01281ED0DDED017ADFED0F6A9E
:101AF000ADF80450F8EEE77A214687EEA67A38462C
:101B000088ED007AFFF7D8FC01280CD0BDF904302D
:101B100007EE903AF8EEE77AF2EE046A87EEA67ADC
:101B2000284686ED007A02B0BDE8F0810000C84288
:101B3000012908B50BD003D302290CD0012005E000
:101B40000021FFF71EFC431E5842584108BD0021EA
:101B5000FFF737FCF7E70021FFF7F3FBF3E7012975
:101B600008B50BD003D302290BD0012005E00121D9
:101B7000FFF707FC431E5842584108BDFFF721FC00
:101B8000F8E70121FFF7DDFBF4E7012908B505D8E7
:101B9000FFF797FB431E5842584108BD0120FCE760
:101BA000402908B503D008D809B120290BD1FFF787
:101BB00094FC431E5842584108BD8029F7D0E029C3
:101BC000F5D06029F2E70120F6E7012908B505D82C
:101BD000FFF757FB431E5842584108BD0120FCE760
:101BE000FFF778BDFFF7AEBD08B5FFF793FA431EC8
:101BF0005842584108BD08B5FFF78CFA431E5842B9
:101C0000584108BD012908B505D8FFF75AFB431E06
:101C10005842584108BD0120FCE7000037B50D4689
:101C200002A9002441F8044DFFF721FC01280AD045
:101C3000DDED017ADFED056AF8EEE77A204687EE02
:101C4000A67A85ED007A03B030BD00BF0000C8421F
:101C500037B50D4602A9002421F8024DFFF72CFCF0
:101C600001280CD0BDF9063007EE903AF8EEE77A7D
:101C7000F2EE046A87EEA67A204685ED007A03B07C
:101C800030BD000008B5826803791268012B116825
:101C900005D1FFF7E7FD431E5842584108BDF7EE56
:101CA000007AB4EEE70AF1EE10FA18D9F2EE047AEF
:101CB000B4EEE70AF1EE10FA11D9F3EE097AB4EEB8
:101CC000E70AF1EE10FA0AD9DFED077A9FED077AFD
:101CD000B4EEE70AF1EE10FA88BFF0EE477AC1EDF4
:101CE000017A0020DAE700BF000048420000964277
:101CF000012A10B51C4688BF41F0800113462246D8
:101D000004F0B4FE003018BF012010BD012A10B548
:101D10001C4688BF41F080011346224604F08EFE27
:101D2000003018BF012010BD08B501220B460F215D
:101D3000FFF7DEFF003018BF012008BD13B50122F8
:101D40000C460DF107032021FFF7D2FF30B99DF8B3
:101D5000073003F07003237002B010BD0120FBE7D1
:101D600013B501220C460DF107032721FFF7C0FF31
:101D700078B99DF8073003F001022270C3F34002E6
:101D80006270C3F30012C3F34013A270E37002B099
:101D900010BD0120FBE713B503220C4601AB28213F
:101DA000FFF7A6FF80B99DF806309DF805201B04BB
:101DB00043EA02239DF8042013431A0248BF43F06C
:101DC0007F43236002B010BD0120FBE713B50C4632
:101DD00001A9FFF7E0FF48B9019A642353434FF488
:101DE000805293FBF2F3236002B010BD0120FBE7A9
:101DF00013B502220C4601AB2B21FFF779FF40B946
:101E00009DF805209DF8043003EB0223238002B0E7
:101E100010BD0120FBE713B50C460DF10601FFF7DD
:101E2000E7FF48B9BDF90630302293FBF2F303F225
:101E3000A913238002B010BD0120FBE70A4608B5B4
:101E4000014602480DF0CAFCFEE700BF5A15010822
:101E500012F0F30F73B506460D46144603D0A521C4
:101E60001148FFF7EBFF032901D9A621F8E70DF18F
:101E7000070301221021FFF73BFF98B99DF80730B7
:101E800023F00F031D432C430DF107030122102102
:101E900030468DF80740FFF739FF003018BF0120AA
:101EA00002B070BD0120FBE78515010811F0CF0FCE
:101EB00037B505460C4606D0402904D04FF498713A
:101EC0000F48FFF7BBFF0DF1070301222021284631
:101ED000FFF70EFF90B99DF8073023F070031C4305
:101EE00001220DF10703202128468DF80740FFF756
:101EF0000DFF003018BF012003B030BD0120FBE70B
:101F000085150108012937B505460C4604D940F26C
:101F10005B111048FFF792FF0DF10703012220210A
:101F2000FFF7E6FE98B99DF8071001F07F0141EA3E
:101F3000C4118DF807100DF1070301222021284656
:101F4000FFF7E4FE003018BF012003B030BD0120D0
:101F5000FBE700BF8515010808B50121FFF7D2FF97
:101F6000003018BF012008BD08B50021FFF7CAFFE7
:101F7000003018BF012008BD11F0FB0F37B5054632
:101F80000C4604D04FF4BB710F48FFF757FF0DF11B
:101F9000070301222021FFF7ABFE90B99DF807301F
:101FA00023F004031C4301220DF1070320212846DE
:101FB0008DF80740FFF7AAFE003018BF012003B0DC
:101FC00030BD0120FBE700BF85150108012937B5A9
:101FD00005460C4604D94FF4D0711048FFF72EFF88
:101FE0000DF1070301222021FFF782FE98B99DF829
:101FF000071021F0080141EAC4018DF807100DF126
:102000000703012220212846FFF780FE003018BF79
:10201000012003B030BD0120FBE700BF851501089A
:10202000012937B505460C4604D94FF4F1710F4824
:10203000FFF704FF0DF1070301222021FFF758FEEF
:1020400090B99DF8073023F001031C4301220DF1E4
:102050000703202128468DF80740FFF757FE003080
:1020600018BF012003B030BD0120FBE78515010832
:1020700013B50C4601A9FFF773FE01281EBF9DF89A
:1020800005302370002002B010BD13B50C4601A925
:10209000FFF766FE01281EBF9DF804302370002064
:1020A00002B010BD07B502AB03F8012D0122FFF706
:1020B0002DFE431E5842584103B05DF804FBFFF764
:1020C000F1BF08B513460122FFF712FE431E584226
:1020D000584108BDFFF7F5BFF7EE007AB4EEE70A06
:1020E000F1EE10FA08B515D9F1EE0C7AB4EEE70A64
:1020F000F1EE10FA10D9F2EE097AB4EEE70AF1EE39
:1021000010FA94BF30214021FFF7D0FE431E584201
:10211000584108BD1021F7E72021F5E7FFF7DCBFA4
:1021200008B504290FD8DFE801F00C030A0A0A00F9
:102130003021FFF7BBFE431E5842584108BD4021E5
:10214000F7E71021F5E70120F8E7FFF7E9BF000006
:1021500013B50C460DF10701FFF7F0FD012813D070
:102160009DF80700202816D006D858B110280DD0A9
:102170000B4B2360012007E030280ED04028F7D118
:10218000084B05E00023236002B010BD4FF07E53E2
:1021900023600020F8E7044BFAE7044BF8E700BFA0
:1021A000000080BF0000C8410000E040000048413E
:1021B000FFF7CEBF37B50D4602A9002441F8044D04
:1021C000FFF704FE01280AD0DDED017ADFED056A94
:1021D000F8EEE77A204687EEA67A85ED007A03B01E
:1021E00030BD00BF0000C84213B502A9002301F8AA
:1021F000013D0446FFF798FD012805D020789DF8A1
:102200000730C01A18BF012002B010BDFFF7ECBFA5
:1022100037B50D4602A9002421F8024DFFF7FBFD5A
:1022200001280CD0BDF9063007EE903AF8EEE77AB7
:10223000F2EE046A87EEA67A204685ED007A03B0B6
:1022400030BD10B50379044683B183681B681B68F1
:10225000DB7833B1A3681B681B680020987020717D
:1022600010BDFFF781FE0128F4D1F9E71846F7E722
:10227000836810B51B681B685B78044633B1A3689C
:102280001B681B6800201870E07010BDFFF7D9FFB5
:102290000128F4D1F9E710B50379012B04460AD0DF
:1022A00083681B681B68DB783BB1A3681B681A68EE
:1022B000012393702371002003E0FFF74DFE0128F6
:1022C000F3D110BD10B50446FFF78EFF012801D1F0
:1022D000012010BD2046FFF747FE0128F8D000215D
:1022E0002046FFF71DFF0128F2D001212046FFF70D
:1022F0006DFE0128ECD004212046FFF73DFE0128A9
:10230000E6D001212046FFF78BFE0128E0D0042211
:1023100001212046FFF79CFD431E58425841D8E753
:10232000836810B51B681B685B7804463BB1A368E3
:102330001B681A68012313700020E37010BDFFF7BB
:10234000C1FF0128F3D1F9E7836810B51B681B684A
:102350001B7804463BB1A3681B681A6801235370BD
:102360000020E37010BDFFF7ADFF0128F3D1F9E7BE
:10237000FFF7B2BEFFF738BFFFF7EABEFFF7D0BEE8
:1023800008B5FFF7D1FC431E5842584108BD08B5B7
:10239000FFF7CAFC431E5842584108BD10B50379E7
:1023A000012B04460AD083681B681B689B783BB1ED
:1023B000A3681B681A680123D3702371002003E00F
:1023C000FFF7CAFD0128F3D110BD10B5037904460B
:1023D00083B183681B681B689B7833B1A3681B6853
:1023E0001B680020D870207110BDFFF7BDFD0128CB
:1023F000F4D1F9E71846F7E7836810B51B681B6846
:102400001B78044633B1A3681B681B680020587012
:10241000E07010BDFFF7D9FF0128F4D1F9E708B546
:1024200004F00CFBB0FA80F0400908BD08B504F0D8
:102430001DFBB0FA80F0400908BD08B50A4601232B
:102440000F21FFF7F3FF003018BF012008BD37B59B
:1024500001230C460DF1070210210546FFF7E6FFA8
:1024600080B19DF8073023F018031C430DF10702DB
:102470000123102128468DF80740FFF7D0FF0030D8
:1024800018BF012003B030BD10B50A460C46012329
:102490001021FFF7CBFF20B1237803F0180323703E
:1024A000012010BD37B501230C460DF107021021A4
:1024B0000546FFF7BBFF80B19DF8073003F01F030F
:1024C0001C430DF107020123102128468DF8074017
:1024D000FFF7A5FF003018BF012003B030BD10B5D5
:1024E0000A460C4601231021FFF7A0FF20B12378F4
:1024F00023F01F032370012010BD37B501230C46C4
:102500000DF1070220210546FFF790FF80B19DF8ED
:10251000073023F018031C430DF10702012320218B
:1025200028468DF80740FFF77AFF003018BF0120DA
:1025300003B030BD10B50A460C4601232021FFF739
:1025400075FF20B1237803F018032370012010BD1C
:1025500037B501230C460DF1070220210546FFF790
:1025600065FF80B19DF8073003F01F031C430DF198
:1025700007020123202128468DF80740FFF74FFF6F
:10258000003018BF012003B030BD10B50A460C461C
:1025900001232021FFF74AFF20B1237823F01F03F6
:1025A0002370012010BD37B501230C460DF1070241
:1025B00022210546FFF73AFF80B19DF8073023F04E
:1025C00040031C430DF107020123222128468DF808
:1025D0000740FFF724FF003018BF012003B030BDD3
:1025E00070B506460D46182401232A46214630467A
:1025F000FFF71CFF78B1611C0123EA18C9B230460D
:10260000FFF714FF38B10234E4B21E2C05F10205C5
:10261000EAD1012070BD0020FCE770B506460D46EA
:10262000282401232A4621463046FFF7FFFE78B1D1
:10263000611C0123EA18C9B23046FFF7F7FE38B132
:102640000234E4B22E2C05F10205EAD1012070BD5E
:102650000020FCE710B50A460C4601232721FFF7AE
:10266000E5FE20B1237803F001032370012010BDA3
:1026700010B50A460C4601232721FFF7D7FE20B1EB
:10268000237803F002032370012010BD37B5012326
:102690000C460DF107021E210546FFF7C7FE80B16B
:1026A0009DF8073023F008031C430DF107020123B6
:1026B0001E2128468DF80740FFF7B1FE003018BFF5
:1026C000012003B030BD10B50A460C4601231E217F
:1026D000FFF7ACFE20B1237803F00803237001203C
:1026E00010BD37B501230C460DF107021E2105462A
:1026F000FFF79CFE80B19DF8073023F010031C43C8
:102700000DF1070201231E2128468DF80740FFF72F
:1027100086FE003018BF012003B030BD10B50A4658
:102720000C4601231E21FFF781FE20B1237803F020
:1027300010032370012010BD37B501230C460DF1A5
:1027400007021E210546FFF771FE80B19DF8073094
:1027500023F020031C430DF1070201231E2128460C
:102760008DF80740FFF75BFE003018BF012003B073
:1027700030BD10B50A460C4601231E21FFF756FE58
:1027800020B1237803F020032370012010BD37B55A
:1027900001230C460DF107021F210546FFF746FEF7
:1027A00080B19DF8073023F008031C430DF10702A8
:1027B00001231F2128468DF80740FFF730FE003027
:1027C00018BF012003B030BD10B50A460C460123E6
:1027D0001F21FFF72BFE20B1237803F0080323709D
:1027E000012010BD37B501230C460DF107021F2152
:1027F0000546FFF71BFE80B19DF8073023F010035C
:102800001C430DF1070201231F2128468DF80740C4
:10281000FFF705FE003018BF012003B030BD10B532
:102820000A460C4601231F21FFF700FE20B1237842
:1028300003F010032370012010BD37B501230C46AF
:102840000DF107021F210546FFF7F0FD80B19DF84D
:10285000073023F020031C430DF1070201231F2141
:1028600028468DF80740FFF7DAFD003018BF012039
:1028700003B030BD10B50A460C4601231F21FFF7F7
:10288000D5FD20B1237803F020032370012010BD73
:1028900037B501230C460DF1070222210546FFF74B
:1028A000C5FD80B19DF8073023F004031C430DF1F2
:1028B00007020123222128468DF80740FFF7AFFDCC
:1028C000003018BF012003B030BD13B50C460DF128
:1028D0000701FFF7BFFE50B19DF8070028B101289E
:1028E00005D12070002002B010BD2070FBE7012050
:1028F000F9E713B502AC012304F8012D2246FFF7D6
:102900008EFDB0FA80F0400902B010BDFFF7F1BFB4
:1029100008B50123FFF78AFDB0FA80F0400908BD31
:10292000FFF7F6BF37B50C460DF105010546FFF779
:102930004BFF10B9012003B030BD0DF10601284650
:10294000FFF76DFF0028F5D00DF107012846FFF7CE
:1029500091FF0028EED09DF80530A3F10802534204
:10296000534123709DF80630A3F110014B424B41B7
:1029700063709DF80730A3F1200043424341A370E8
:102980000020D8E7F0EE007AB4EEE70AF1EE10FA94
:1029900008B515D9F1EE007AB4EEE70AF1EE10FAB7
:1029A00010D9F2EE007AB4EEE70AF1EE10FA94BF15
:1029B00018210821FFF7A1FDB0FA80F0400908BDF9
:1029C0000021F7E71021F5E7022908B508D004290E
:1029D00008D049B9FFF791FDB0FA80F0400908BD71
:1029E0001021F7E71821F5E70120F8E713B50C46A9
:1029F0000DF10701FFF79EFD38B19DF8070008288B
:102A000016D004D850B10C4B2360012009E01028E7
:102A100009D01828F7D14FF0824306E04FF08043E9
:102A2000236002B010BD4FF0814323600020F8E71F
:102A30004FF08343F9E700BF000080BF13B50C4699
:102A40000DF10701FFF776FD38B19DF80700082862
:102A500013D004D848B10A4B2360012007E01028A6
:102A600007D01828F7D1074B04E0074B236002B0CA
:102A700010BD064B23600020F9E7054BFAE700BFC5
:102A8000000080BF23DB793E23DB793D23DBF93D6A
:102A90005A643B3FF2EE047AB4EEE70AF1EE10FA24
:102AA00008B523D9DFED157AB4EEE70AF1EE10FA96
:102AB0001ED9DFED137AB4EEE70AF1EE10FA19D958
:102AC000DFED107AB4EEE70AF1EE10FA14D9DFED7B
:102AD0000E7AB4EEE70AF1EE10FA94BFA021C021FD
:102AE000FFF736FDB0FA80F0400908BD2021F7E776
:102AF0004021F5E76021F3E78021F1E7000048423B
:102B00000000EE4200006E430000EE4310B5037972
:102B1000012B044609D083681B6893ED000AFFF778
:102B2000B9FF012802D001232371002010BD37B561
:102B300000240D4669460094ADF80440FFF76DFD92
:102B4000B8B19DF801209DF8003003EB02232B80E3
:102B50009DF803209DF8023003EB02236B809DF863
:102B600005209DF8043003EB0223AB80204603B020
:102B700030BD0120FBE713B50C466946FFF7D7FFD0
:102B8000012809D0BDF800302380BDF802306380F1
:102B9000BDF80430A380002002B010BD30B585B070
:102BA00000230C4602A905460193FFF7C0FF012848
:102BB00002D1012005B030BD01A92846FFF73EFF34
:102BC0000128F6D0BDF90830DDED016A07EE103AB4
:102BD000B8EEC77ABDF90A3027EE267A0020BDEE9E
:102BE000C77A84ED007A07EE103ABDF90C3007EE93
:102BF000903AB8EEC77AF8EEE77A27EE267A67EED3
:102C0000A67ABDEEC77AFDEEE77A84ED017AC4EDCF
:102C1000027ACFE713B502A9002301F8013D04466B
:102C2000FFF70BFC38B120789DF80730C01A18BFA9
:102C3000012002B010BD0120FBE7FFF7EBBF13B589
:102C40000C460DF10701FFF713FD60B19DF8070079
:102C500038B102284FF0010001D12070002002B0ED
:102C600010BD2070FBE70120F9E737B50C460DF1E8
:102C700005010546FFF727FD10B9012003B030BD5F
:102C80000DF106012846FFF749FD0028F5D00DF1AA
:102C900007012846FFF76DFD0028EED09DF80530AE
:102CA000A3F108025342534123709DF80630A3F16B
:102CB00010014B424B4163709DF80730A3F1200097
:102CC00043424341A3700020D8E70000DFED0C7AB7
:102CD000B4EEE70AF1EE10FA08B50ED9DFED097A85
:102CE000B4EEE70AF1EE10FA94BF08211821FFF7BD
:102CF000AEFBB0FA80F0400908BD0021F7E700BF45
:102D0000000075430000FA43022908B508D00429E1
:102D100008D049B9FFF79BFBB0FA80F0400908BD25
:102D20000821F7E71821F5E70120F8E713B50C466D
:102D30000DF10701FFF7A8FB90B19DF807000828E7
:102D400006D0182808D048B9064B236002B010BD41
:102D5000054B23600020F9E7044BFAE7044B23609E
:102D60000120F3E7000075430000FA430000FA4435
:102D7000000080BF13B50C460DF10701FFF784FB7F
:102D800090B19DF80700082806D0182808D048B947
:102D9000064B236002B010BD054B23600020F9E70D
:102DA000044BFAE7044B23600120F3E700000C41D9
:102DB00000008C4100008C42000080BF13B50C461F
:102DC0000DF10701FFF78BFB18B39DF80700602892
:102DD00017D008D820280ED0402810D0B8B900232A
:102DE000236002B010BDA0280DD0C0280DD08028CF
:102DF0000DD1094B00E0094B23600020F1E7084B9F
:102E0000FAE7084BF8E7084BF6E7084BF4E7084BFE
:102E100023600120E5E700BF00006E430000704121
:102E2000000070420000EE420000EE4300006E44DD
:102E3000000080BFF2EE0E7A38B5B4EEE70A836880
:102E4000F1EE10FA04461D682AD9DFED1A7AB4EEC5
:102E5000E70AF1EE10FA25D9DFED177AB4EEE70AAA
:102E6000F1EE10FA20D9DFED157AB4EEE70AF1EEB3
:102E700010FA1BD9DFED127AB4EEE70AF1EE10FA80
:102E800094BFA021C0212046FFF70CFB80B16968E8
:102E900020460431FFF792FF431E5842584138BD87
:102EA0002021F0E74021EEE76021ECE78021EAE70E
:102EB0000120F4E7000070420000EE4200006E4383
:102EC0000000EE4338B50379012B04460BD083682C
:102ED0001D6895ED000AFFF7ADFF012804D06A6870
:102EE000012313702371002038BD38B503790446DF
:102EF000ABB183681D682946FFF760FF012801D147
:102F0000012038BD00212046FFF7CCFA0028F7D079
:102F10006B680020002218705A602071F1E7184693
:102F2000EFE738B5836804461D68FFF773FE012894
:102F300001D1012038BD2046FFF7D7FF0128F8D086
:102F4000002300202B60E070F4E737B500240D4625
:102F500069460094ADF80440FFF742FBB8B19DF814
:102F600001209DF8003003EB02232B809DF8032005
:102F70009DF8023003EB02236B809DF805209DF83D
:102F8000043003EB0223AB80204603B030BD0120A8
:102F9000FBE713B50C466946FFF7D7FF012809D0B8
:102FA000BDF800302380BDF802306380BDF80430E6
:102FB000A380002002B010BD30B585B000230C46C0
:102FC00002A905460193FFF7C0FF012802D10120A5
:102FD00005B030BD01A92846FFF7CCFE0128F6D088
:102FE000BDF90830DDED016A07EE103AB8EEC77A98
:102FF000BDF90A3027EE267A0020BDEEC77A84EDAF
:10300000007A07EE103ABDF90C3007EE903AB8EEB0
:10301000C77AF8EEE77A27EE267A67EEA67ABDEE53
:10302000C77AFDEEE77A84ED017AC4ED027ACFE744
:1030300038B50B78012B0C460CBF08210021054642
:10304000FFF7A5FB08B9012038BD6378012B0CBF41
:10305000102100212846FFF7C5FB0028F3D0A378F4
:10306000012B0CBF202100212846FFF7E6FBB0FA18
:1030700080F04009E8E7000013B51A4B1A889B78E6
:10308000ADF8042004468DF80630FFF7C3FD012893
:1030900002D1012002B010BD04212046FFF7F8FB49
:1030A0000028F6D0A368104A1B6840211A60204609
:1030B000FFF779FA0028ECD000212046FFF748FA04
:1030C0000028E6D000212046FFF77EFC0128E0D052
:1030D00001A92046FFF7ACFF0128DAD00123E370F5
:1030E0000020D7E7681201080000EE4208B5027917
:1030F000012A05D1FFF7CEFC431E5842584108BDB6
:10310000F2EE047A8368B4EEE70AF1EE10FA1B6877
:103110001FD9DFED127AB4EEE70AF1EE10FA18D9F2
:10312000DFED0F7AB4EEE70AF1EE10FA11D9DFED18
:103130000D7AB4EEE70AF1EE10FA0AD9DFED0A7A59
:103140009FED0A7AB4EEE70AF1EE10FA88BFF0EECE
:10315000477AC3ED007A0020D1E700BF0000484263
:103160000000EE4200006E430000EE4300006E449B
:1031700008B50379012B11D1042920D8DFE801F02B
:103180000C0C03030A004021FFF7E2F9B0FA80F0CB
:10319000400908BD6021F7E72021F5E783681B6837
:1031A00004290CD8DFE801F0030307070900054AEA
:1031B0001A600020EDE7044AFAE7044AF8E7012024
:1031C000E7E700BF00002041000048420000EE4257
:1031D000836813B51B685B681A78012A0C4603D113
:1031E0005B682360002010E00DF10701FFF7CDF9C7
:1031F00008B39DF80700602815D008D820280ED005
:1032000040280ED0A8B90023236002B010BDA0282A
:103210000BD0C0280BD080280BD1084BE1E7084B1E
:10322000DFE7084BDDE7084BDBE7084BD9E7084B46
:10323000D7E7084B23600120E7E700BF00006E439B
:1032400000002041000048420000EE420000EE4332
:1032500000006E44000080BF10B50379044683B1BE
:1032600083681968FFF7B4FF012801D1012010BD60
:1032700000212046FFF76CF90028F7D000202071CC
:10328000F5E71846F3E738B5836804461D68FFF78D
:10329000C1FC012801D1012038BD2046FFF7DCFF29
:1032A0000128F8D0002300202B60E070F4E738B547
:1032B0000B78012B0C460CBF082100210546FFF7B7
:1032C000E5F908B9012038BD6378012B0CBF102146
:1032D00000212846FFF705FA0028F3D0A378012B38
:1032E0000CBF202100212846FFF726FAB0FA80F013
:1032F0004009E8E713B51B4B1A889B78ADF804200A
:1033000004468DF80630FFF785FC012802D1012024
:1033100002B010BD04212046FFF7BAFA0028F6D00B
:10332000A3681A68104B136052684021536020460E
:10333000FFF739F90028EAD000212046FFF7B2F85C
:103340000028E4D004212046FFF7DEFC0128DED06F
:1033500001A92046FFF7ABFF0128D8D00123E37075
:103360000020D5E7681201080000EE4208B5027996
:10337000012A05D1FFF75EFD431E5842584108BDA2
:10338000F2EE0E7A8368B4EEE70AF1EE10FA1B68EB
:103390001FD9DFED137AB4EEE70AF1EE10FA18D96F
:1033A000DFED107AB4EEE70AF1EE10FA11D9DFED95
:1033B0000E7AB4EEE70AF1EE10FA0AD9DFED0B7AD5
:1033C0009FED0B7AB4EEE70AF1EE10FA88BFF0EE4B
:1033D000477AC3ED007A5B680020C3ED017ACEE73F
:1033E000000070420000EE4200006E430000EE4319
:1033F00000006E4438B583681C680379012B0546CC
:1034000018D1042927D8DFE801F0030313131100B2
:1034100020212846FFF746F8E8B1616828460431C4
:10342000FFF7CCFC431E5842584138BD6021F0E7FD
:103430004021EEE704290ED8DFE801F00303090973
:103440000B00064B6268236000205360EDE7044BDD
:10345000F8E7044BF6E70120E7E700BF0000704102
:10346000000070420000EE42FFF7D4BB08B5FEF743
:10347000E4FFB0FA80F0400908BD08B5FEF7DDFFB3
:10348000B0FA80F0400908BD08B503F0D7FAB0FAE9
:1034900080F0400908BD08B503F0E8FAB0FA80F002
:1034A000400908BD08B50A4601230F21FFF7F3FFC5
:1034B000003018BF012008BD37B501230C460DF1BF
:1034C000070212210546FFF7E6FF80B19DF807309D
:1034D00023F040031C430DF107020123122128466B
:1034E0008DF80740FFF7D0FF003018BF012003B070
:1034F00030BD37B501230C460DF1070210210546FA
:10350000FFF7C9FF80B19DF8073023F00C031C437F
:103510000DF107020123102128468DF80740FFF71F
:10352000B3FF003018BF012003B030BD10B50A460C
:103530000C4601231021FFF7AEFF20B1237803F0E2
:103540000C032370012010BD70B506460D462824DB
:1035500001232A4621463046FFF79DFF78B1611CC2
:103560000123EA18C9B23046FFF795FF38B102349B
:10357000E4B22E2C05F10205EAD1012070BD002035
:10358000FCE737B501230C460DF107021021054673
:10359000FFF781FF80B19DF8073003F00F031C4354
:1035A0000DF107020123102128468DF80740FFF78F
:1035B0006BFF003018BF012003B030BD10B50A46C4
:1035C0000C4601231021FFF766FF20B1237823F07A
:1035D0000F032370012010BD37B501230C460DF1F8
:1035E000070211210546FFF756FF80B19DF807300D
:1035F00023F00C031C430DF107020123112128467F
:103600008DF80740FFF740FF003018BF012003B0DE
:1036100030BD10B50A460C4601231121FFF73BFFD0
:1036200020B1237803F00C032370012010BD37B5BF
:1036300001230C460DF1070211210546FFF72BFF70
:1036400080B19DF8073003F00F031C430DF1070212
:103650000123112128468DF80740FFF715FF0030A0
:1036600018BF012003B030BD10B50A460C46012337
:103670001121FFF710FF20B1237823F00F032370EF
:10368000012010BD70B506460D46222401232A46AE
:1036900021463046FFF7FFFE78B1611C0123EA188E
:1036A000C9B23046FFF7F7FE38B10234E4B2282C35
:1036B00005F10205EAD1012070BD0020FCE737B515
:1036C00001230C460DF1070211210546FFF7E3FE29
:1036D00080B19DF8073023F002031C430DF107026F
:1036E0000123112128468DF80740FFF7CDFE003059
:1036F00018BF012003B030BD10B50A460C460123A7
:103700001121FFF7C8FE20B1237803F002032370D4
:10371000012010BD37B501230C460DF107021946F3
:103720000546FFF7B8FE80B19DF8073003F07F0330
:103730001C4301230DF10702194628468DF8074066
:10374000FFF7A2FE003018BF012003B030BD37B52F
:1037500001230C460DF1070206210546FFF79BFEEB
:1037600010B9002003B030BD01230DF1070206217E
:1037700028468DF80740FFF787FE0028F1D0012387
:103780000DF1070207212846FFF785FE0028E8D043
:103790009DF80710C4F3032421F00F0121438DF895
:1037A000071001230DF1070207212846FFF76CFEE1
:1037B000003018BF0120D5E737B501230C460DF1C5
:1037C000070208210546FFF766FE80B19DF8073025
:1037D00023F007031C430DF10702012308212846AB
:1037E0008DF80740FFF750FE003018BF012003B0EE
:1037F00030BD37B501230C460DF1070208210546FF
:10380000FFF749FE80B19DF8073023F038031C43D1
:103810000DF107020123082128468DF80740FFF724
:1038200033FE003018BF012003B030BD37B501238F
:103830000C460DF107020A210546FFF72CFE80B168
:103840009DF8073023F007031C430DF10702012305
:103850000A2128468DF80740FFF716FE003018BFF2
:10386000012003B030BD37B501230C460DF107022E
:103870000A210546FFF70FFE80B19DF8073023F0BF
:1038800078031C430DF1070201230A2128468DF815
:103890000740FFF7F9FD003018BF012003B030BD2D
:1038A00037B501230C460DF107020D210546FFF740
:1038B000F2FD80B19DF8073023F020031C430DF189
:1038C000070201230D2128468DF80740FFF7DCFD94
:1038D000003018BF012003B030BD37B501230C46BE
:1038E0000DF107020D210546FFF7D5FD80B19DF8CA
:1038F000073003F07F031C430DF1070201230D2164
:1039000028468DF80740FFF7BFFD003018BF0120A3
:1039100003B030BD37B501230C460DF1070212216B
:103920000546FFF7B8FD80B19DF8073023F004038A
:103930001C430DF107020123122128468DF8074090
:10394000FFF7A2FD003018BF012003B030BD37B52E
:1039500001230C460DF1070213210546FFF79BFDDD
:1039600080B19DF8073023F001031C430DF10702DD
:103970000123132128468DF80740FFF785FD00300D
:1039800018BF012003B030BD37B501230C460DF13F
:10399000070214210546FFF77EFD80B19DF8073030
:1039A00023F003031C430DF10702012314212846D1
:1039B0008DF80740FFF768FD003018BF012003B005
:1039C00030BD37B501230C460DF107021421054621
:1039D000FFF761FD80B19DF8073023F00C031C4315
:1039E0000DF107020123142128468DF80740FFF747
:1039F0004BFD003018BF012003B030BD37B50123A7
:103A00000C460DF1070218210546FFF744FD80B171
:103A10009DF8073023F008031C430DF10702012332
:103A2000182128468DF80740FFF72EFD003018BFFB
:103A3000012003B030BD10B50A460C460123182101
:103A4000FFF729FD20B1237803F00803237001203C
:103A500010BD37B501230C460DF1070218210546AC
:103A6000FFF719FD80B19DF8073023F010031C43C8
:103A70000DF107020123182128468DF80740FFF7B2
:103A800003FD003018BF012003B030BD10B50A4659
:103A90000C4601231821FFF7FEFC20B1237803F028
:103AA00010032370012010BD37B501230C460DF122
:103AB000070218210546FFF7EEFC80B19DF807309C
:103AC00023F020031C430DF107020123182128468F
:103AD0008DF80740FFF7D8FC003018BF012003B075
:103AE00030BD10B50A460C4601231821FFF7D3FC60
:103AF00020B1237803F020032370012010BD37B5D7
:103B000001230C460DF1070219210546FFF7C3FCFE
:103B100080B19DF8073023F002031C430DF107022A
:103B20000123192128468DF80740FFF7ADFC00302E
:103B300018BF012003B030BD37B501230C460DF18D
:103B4000070219210546FFF7A6FC80B19DF8073052
:103B500023F008031C430DF1070201231921284615
:103B60008DF80740FFF790FC003018BF012003B02C
:103B700030BD10B50A460C4601231921FFF78BFC16
:103B800020B1237803F008032370012010BD37B55E
:103B900001230C460DF1070219210546FFF77BFCB6
:103BA00080B19DF8073023F010031C430DF107028C
:103BB0000123192128468DF80740FFF765FC0030E6
:103BC00018BF012003B030BD10B50A460C460123D2
:103BD0001921FFF760FC20B1237803F01003237054
:103BE000012010BD37B501230C460DF10702192144
:103BF0000546FFF750FC80B19DF8073023F0200305
:103C00001C430DF107020123192128468DF80740B6
:103C1000FFF73AFC003018BF012003B030BD10B5EB
:103C20000A460C4601231921FFF735FC20B1237801
:103C300003F020032370012010BD37B501230C468B
:103C40000DF1070219210546FFF725FC80B19DF80B
:103C5000073023F004031C430DF10702012319214F
:103C600028468DF80740FFF70FFC003018BF0120F1
:103C700003B030BD10B50A460C4601231B21FFF7E7
:103C80000AFC20B1237803F008032370012010BD43
:103C900010B50A460C4601231B21FFF7FCFB20B19F
:103CA000237803F020032370012010BD10B50A46CD
:103CB0000C4601231C21FFF7EEFB20B1237803F013
:103CC00010032370012010BD10B50A460C460123D5
:103CD0001C21FFF7E0FB20B1237803F020032370C1
:103CE000012010BD10B50A460C4601231D21FFF727
:103CF000D2FB20B1237803F001032370012010BD13
:103D000010B50A460C4601231D21FFF7C4FB20B164
:103D1000237803F002032370012010BD10B50A467A
:103D20000C4601231D21FFF7B6FB20B1237803F0D9
:103D300004032370012010BD10B50A460C46012370
:103D40001D21FFF7A8FB20B1237803F0080323709F
:103D5000012010BD10B50A460C4601231D21FFF7B6
:103D60009AFB20B1237803F010032370012010BDCB
:103D700010B50A460C4601231D21FFF78CFB20B12C
:103D8000237803F020032370012010BD10B50A46EC
:103D90000C4601231D21FFF77EFB20B1237803F0A1
:103DA00040032370012010BD10B50A460C460123C4
:103DB0001E21FFF770FB20B1237803F0010323706D
:103DC000012010BD10B50A460C4601231E21FFF745
:103DD00062FB20B1237803F002032370012010BDA1
:103DE00037B501230C460DF107023A210546FFF7CE
:103DF00052FB10B9002003B030BD01230DF10602C3
:103E00003B212846FFF747FB0028F3D09DF80630FA
:103E100003F00F029DF8073043EA022323800120BC
:103E2000E9E710B50A460C4601233B21FFF733FBB7
:103E300020B1237803F010032370012010BD10B5CA
:103E40000A460C4601233B21FFF725FB20B12378CE
:103E500003F020032370012010BD10B50A460C4664
:103E600001233B21FFF717FB20B1237803F0400328
:103E70002370012010BD37B501230C460DF1070258
:103E80003C210546FFF707FB10B9002003B030BD09
:103E900001230DF106023D212846FFF7FCFA002818
:103EA000F3D09DF8063003F003029DF8073043EA93
:103EB000022323800120E9E710B50A460C460123BE
:103EC0005321FFF7E8FA20B1237803F010032370A1
:103ED000012010BD10B50A460C4601235321FFF7FF
:103EE000DAFA20B1237803F020032370012010BDFB
:103EF00037B501230C460DF1070258210546FFF79F
:103F0000CAFA80B19DF8073023F001031C430DF17C
:103F100007020123582128468DF80740FFF7B4FA1D
:103F2000003018BF012003B030BD37B501230C4667
:103F30000DF1070258210546FFF7ADFA80B19DF853
:103F4000073023F002031C430DF10702012358211F
:103F500028468DF80740FFF797FA003018BF012078
:103F600003B030BD37B501230C460DF107025821CF
:103F70000546FFF790FA80B19DF8073023F004035F
:103F80001C430DF107020123582128468DF80740F4
:103F9000FFF77AFA003018BF012003B030BD37B503
:103FA00001230C460DF1070258210546FFF773FA6D
:103FB00080B19DF8073023F008031C430DF1070280
:103FC0000123582128468DF80740FFF75DFA00309D
:103FD00018BF012003B030BD37B501230C460DF1E9
:103FE000070258210546FFF756FA80B19DF80730C1
:103FF00023F020031C430DF107020123582128461A
:104000008DF80740FFF740FA003018BF012003B0D9
:1040100030BD37B501230C460DF107025821054686
:10402000FFF739FA80B19DF8073023F040031C43B5
:104030000DF107020123582128468DF80740FFF7AC
:1040400023FA003018BF012003B030BD37B501237B
:104050000C460DF1070259210546FFF71CFA90B1F5
:104060009DF8071004F01F0421F01F0121438DF873
:10407000071001230DF1070259212846FFF704FA22
:10408000003018BF012003B030BD37B501230C4606
:104090000DF1070259210546FFF7FDF980B19DF8A2
:1040A000073023F060031C430DF10702012359215F
:1040B00028468DF80740FFF7E7F9003018BF0120C8
:1040C00003B030BD37B501230C460DF107025A216C
:1040D0000546FFF7E0F990B19DF8071004F00304DE
:1040E00021F0030121438DF8071001230DF1070290
:1040F0005A212846FFF7C8F9003018BF012003B045
:1041000030BD37B501230C460DF107025A21054693
:10411000FFF7C1F998B19DF80710A40021F00C0138
:1041200004F00C0421438DF8071001230DF1070260
:104130005A212846FFF7A8F9003018BF012003B024
:1041400030BD37B501230D460DF107025A21044653
:10415000FFF7A1F988B19DF8071001F00F0141EABE
:1041600005118DF8071001230DF107025A21204691
:10417000FFF78AF9003018BF012003B030BD37B512
:1041800001230C460DF107025B210546FFF783F979
:1041900090B19DF8071004F03F0421F03F01214346
:1041A0008DF8071001230DF107025B212846FFF768
:1041B0006BF9003018BF012003B030BD37B50123C3
:1041C0000C460DF107025B210546FFF764F980B14B
:1041D0009DF8073003F07F031C430DF10702012314
:1041E0005B2128468DF80740FFF74EF9003018BFD5
:1041F000012003B030BD37B501230C460DF1070295
:104200005C210546FFF747F990B19DF8071004F0CF
:104210000F0421F00F0121438DF8071001230DF148
:1042200007025C212846FFF72FF9003018BF012054
:1042300003B030BD37B501230C460DF107025C21F8
:104240000546FFF728F980B19DF8073023F01003E9
:104250001C430DF1070201235C2128468DF807401D
:10426000FFF712F9003018BF012003B030BD37B599
:1042700001230C460DF107025C210546FFF70BF9FF
:1042800098B19DF80710640121F0600104F060040A
:1042900021438DF8071001230DF107025C21284608
:1042A000FFF7F2F8003018BF012003B030BD37B57A
:1042B00001230C460DF107025D210546FFF7EBF8DF
:1042C00080B19DF8073023F007031C430DF107026E
:1042D00001235D2128468DF80740FFF7D5F800300F
:1042E00018BF012003B030BD37B501230C460DF1D6
:1042F00007025D210546FFF7CEF810B9002003B094
:1043000030BD9DF8073003F0070343EAC4038DF87E
:1043100007300DF1070201235D212846FFF7B4F8AD
:104320000028EBD001230DF107025C212846FFF79E
:10433000B2F80028E2D09DF80710640901F07F016F
:1043400041EAC4118DF8071001230DF107025C2129
:104350002846FFF799F8003018BF0120CFE737B59E
:1043600001230C460DF107025E210546FFF793F885
:1043700080B19DF8073023F002031C430DF10702C2
:1043800001235E2128468DF80740FFF77DF80030B5
:1043900018BF012003B030BD37B501230C460DF125
:1043A00007025E210546FFF776F880B19DF80730D9
:1043B00023F004031C430DF1070201235E2128466C
:1043C0008DF80740FFF760F8003018BF012003B0F8
:1043D00030BD37B501230C460DF107025E210546BD
:1043E000FFF759F880B19DF8073023F008031C430C
:1043F0000DF1070201235E2128468DF80740FFF7E3
:1044000043F8003018BF012003B030BD37B5012399
:104410000C460DF107025E210546FFF73CF880B11E
:104420009DF8073023F010031C430DF10702012310
:104430005E2128468DF80740FFF726F8003018BFA8
:10444000012003B030BD37B501230C460DF1070242
:104450005E210546FFF71FF880B19DF8073023F075
:1044600020031C430DF1070201235E2128468DF82D
:104470000740FFF709F8003018BF012003B030BD36
:1044800037B501230C460DF107025E210546FFF703
:1044900002F880B19DF8073023F040031C430DF172
:1044A000070201235E2128468DF80740FEF7ECFF46
:1044B000003018BF012003B030BD38B50A460C46A5
:1044C00001233E210546FEF7E6FF40B10123E21835
:1044D0003F212846FEF7DFFF003018BF012038BD1E
:1044E00038B50A460C4601234B210546FEF7D3FF9B
:1044F00040B10123E2184C212846FEF7CCFF0030E2
:1045000018BF012038BD37B504460D468021FFF79E
:1045100001F90DF1070201230F212046FEF7BBFF31
:104520009DF8071005F01F0521F01F0129438DF8A4
:10453000071001230DF107020F212046FEF7A4FF0B
:1045400000212046FFF7E6F8012003B030BD08B592
:10455000FFF7FDF8B0FA80F0400908BD13B50C462E
:104560000DF10701FEF7E2FFC8B19DF807300C2BF3
:1045700013D8DFE803F007121212101212120C12F5
:1045800012120E00074B2360002002B010BD064B34
:10459000F9E7064BF7E7064BF5E7064B23600120EA
:1045A000F3E700BF23DB793D23DBF93D23DB793ED5
:1045B00023DBF93E000080BF13B50C460DF1070167
:1045C000FEF7B4FFE8B19DF807300C2B17D8DFE8F1
:1045D00003F007161616131616160D1616161000EB
:1045E0004FF080432360002002B010BD4FF08143A4
:1045F000F8E74FF08243F5E74FF08343F2E7024BD1
:1046000023600120F0E700BF000080BF08B5FFF77E
:10461000E7FBB0FA80F0400908BD08B5FFF74DFF91
:10462000B0FA80F0400908BDF7B500230D46694691
:1046300007460193FFF7F1FF012802D1012003B0E3
:10464000F0BD01A938469DF801609DF80040FFF7D4
:1046500085FF0128F2D044EA062424B207EE904AEE
:104660009DED017AF8EEE77A002067EE877AFDEE9D
:10467000E77AC5ED007AE2E708B5FFF7FCFBB0FA90
:1046800080F0400908BD13B50C460DF10701FFF796
:10469000E4FB68B19DF8070028B140284FF0010005
:1046A00003D002B010BD2070FBE720700020F8E7B7
:1046B0000120F6E713B50C460DF10701FFF7B1FB3A
:1046C00068B19DF8070028B110284FF0010003D011
:1046D00002B010BD2070FBE720700020F8E7012039
:1046E000F6E713B50C460DF10701FFF7A8FB68B11B
:1046F0009DF8070028B120284FF0010003D002B038
:1047000010BD2070FBE720700020F8E70120F6E7DD
:10471000F2EE047AB4EEE70AF1EE10FA08B53FD9EA
:10472000F3EE097AB4EEE70AF1EE10FA3AD9DFEDCA
:10473000247AB4EEE70AF1EE10FA35D9DFED217AEA
:10474000B4EEE70AF1EE10FA30D9DFED1F7AB4EEDD
:10475000E70AF1EE10FA2BD9DFED1C7AB4EEE70A86
:10476000F1EE10FA26D9DFED1A7AB4EEE70AF1EE8F
:1047700010FA21D9DFED177AB4EEE70AF1EE10FA5C
:104780001CD9DFED157AB4EEE70AF1EE10FA94BF0A
:1047900048215021FFF767F8B0FA80F0400908BDC2
:1047A0000821F7E71021F5E71821F3E72021F1E7C9
:1047B0002821EFE73021EDE73821EBE74021E9E759
:1047C000000048420000C842000048430000C843BF
:1047D000000048440000C84400404E4513B50C4654
:1047E0000DF10701FFF7C4FA60B19DF8070038B179
:1047F00020284FF0010001D12070002002B010BD30
:104800002070FBE70120F9E713B50C460DF1070115
:10481000FFF7A0FA60B19DF8070038B110284FF0FB
:10482000010001D12070002002B010BD2070FBE714
:104830000120F9E713B50C460DF10701FFF77CFAEB
:1048400060B19DF8070038B108284FF0010001D190
:104850002070002002B010BD2070FBE70120F9E7B6
:1048600013B50C460DF10701FFF758FA60B19DF83A
:10487000070038B104284FF0010001D1207000205A
:1048800002B010BD2070FBE70120F9E713B50C461C
:104890000DF10701FFF734FA60B19DF8070038B158
:1048A00002284FF0010001D12070002002B010BD9D
:1048B0002070FBE70120F9E713B50C460DF1070165
:1048C000FFF710FA50B19DF8070028B1012805D173
:1048D0002070002002B010BD2070FBE70120F9E736
:1048E00013B50C460DF10701FFF750FA60B19DF8C2
:1048F000070038B140284FF0010001D1207000209E
:1049000002B010BD2070FBE70120F9E7F0EE007A5D
:10491000B4EEE70AF1EE10FA08B515D9F1EE007A17
:10492000B4EEE70AF1EE10FA10D9F2EE007AB4EE26
:10493000E70AF1EE10FA94BF0C210421FEF7D9FD2D
:10494000B0FA80F0400908BD0021F7E70821F5E73B
:10495000022908B508D0042908D049B9FEF7C9FDD5
:10496000B0FA80F0400908BD0821F7E70C21F5E70F
:104970000120F8E7F2EE0A7AB4EEE70AF1EE10FA57
:1049800008B53FD9F3EE0A7AB4EEE70AF1EE10FA71
:104990003AD9DFED247AB4EEE70AF1EE10FA35D910
:1049A000DFED217AB4EEE70AF1EE10FA30D9DFED4F
:1049B0001F7AB4EEE70AF1EE10FA2BD9DFED1C7A7C
:1049C000B4EEE70AF1EE10FA26D9DFED1A7AB4EE6A
:1049D000E70AF1EE10FA21D9DFED177AB4EEE70A13
:1049E000F1EE10FA1CD9DFED157AB4EEE70AF1EE1C
:1049F00010FA94BF9021A021FEF7C3FDB0FA80F019
:104A0000400908BD1021F7E72021F5E73021F3E741
:104A10004021F1E75021EFE76021EDE77021EBE75E
:104A20008021E9E7000050420000D04200005043DE
:104A30000000D043004050440080CF440020504547
:104A400010B50379012B044609D083681B6893EDE8
:104A5000000AFFF78FFF012802D0012323710020F5
:104A600010BD08B5FFF76DFBB0FA80F0400908BD36
:104A700008B5FFF746FBB0FA80F0400908BD08B55D
:104A8000FFF720FBB0FA80F0400908BD08B5FFF73A
:104A9000DDFAB0FA80F0400908BD13B50C460DF1FF
:104AA0000701FFF703F960B19DF8070038B110283E
:104AB0004FF0010001D12070002002B010BD207025
:104AC000FBE70120F9E713B50C460DF10701FFF7ED
:104AD000FBF860B19DF8070038B120284FF00100C5
:104AE00001D12070002002B010BD2070FBE7012032
:104AF000F9E708B5FFF743FBB0FA80F0400908BDBD
:104B000013B50C460DF10701FFF7B4F860B19DF83D
:104B1000070038B108284FF0010001D120700020B3
:104B200002B010BD2070FBE70120F9E713B50C4679
:104B30000DF10701FFF7CEF960B19DF8070038B11C
:104B400020284FF0010001D12070002002B010BDDC
:104B50002070FBE70120F9E708B5FFF7D4FCB0FAB5
:104B600080F0400908BD08B50021FEF7C8FFB0FA83
:104B700080F0400908BD08B50221FEF7C0FFB0FA79
:104B800080F0400908BD08B5FFF7AAFCB0FA80F034
:104B9000400908BD13B50C460DF10701FFF78CF96C
:104BA00060B19DF8070038B110284FF0010001D125
:104BB0002070002002B010BD2070FBE70120F9E753
:104BC00008B5FFF774FBB0FA80F0400908BD13B5D3
:104BD0000C460DF10701FFF75BF860B19DF8070087
:104BE00038B120284FF0010001D12070002002B020
:104BF00010BD2070FBE70120F9E7000037B50C4637
:104C00000DF107010546FEF777FD08B901200DE01B
:104C10000DF106012846FEF7FCFC0028F6D09DF8B1
:104C20000730022B04D10E4B2360002003B030BDAF
:104C30009DF806300C2B10D8DFE803F0070F0F0F9C
:104C4000090F0F0F0B0F0F0F0D00064BECE7064B74
:104C5000EAE7064BE8E7064BE6E7064B2360D5E7B5
:104C60000000FA42000075430000FA4300007A4455
:104C70000000FA44000080BF13B50C460DF1070197
:104C8000FFF792F850B19DF8070028B1012805D12F
:104C90002070002002B010BD2070FBE70120F9E772
:104CA00013B502AC012304F8012D2246FEF7ECFBFC
:104CB000B0FA80F0400902B010BDFFF7F1BF08B5AF
:104CC0000123FEF7E8FBB0FA80F0400908BDFFF7CA
:104CD000F6BF37B50C460DF105010546FEF7ABFEF4
:104CE00010B9012003B030BD0DF106012846FEF7D2
:104CF000CDFE0028F5D00DF107012846FEF7F1FEA4
:104D00000028EED09DF80530A3F10802534253412C
:104D100023709DF80630A3F110014B424B416370A4
:104D20009DF80730A3F1200043424341A3700020C7
:104D3000D8E7000013B50C460DF10701FEF73EFC65
:104D400060B19DF8070050282BD00FD8202824D020
:104D500006D8D0B110281CD0164B2360012016E0D5
:104D600030281CD04028F7D1134B13E080281CD0EA
:104D700005D8602817D07028EED1104B0AE0902893
:104D800015D0A028E8D10E4B04E00023236002B028
:104D900010BD0C4B23600020F9E70B4BFAE70B4BDF
:104DA000F8E70B4BF6E70B4BF4E70B4BF2E70B4B3B
:104DB000F0E700BF000080BF0000D0420040504438
:104DC0000020D045000050410000D041000050427A
:104DD000000050430000D0430080CF4400205045E5
:104DE00037B500240D4669460094ADF80440FEF73F
:104DF000ABFBB8B19DF801209DF8003003EB022316
:104E00002B809DF803209DF8023003EB02236B807A
:104E10009DF805209DF8043003EB0223AB8020466B
:104E200003B030BD0120FBE713B50C466946FFF720
:104E3000D7FF012809D0BDF800302380BDF802302B
:104E40006380BDF80430A380002002B010BD30B5EF
:104E500085B000230C4602A905460193FFF7C0FF69
:104E6000012802D1012005B030BD01A92846FFF775
:104E700075FB0128F6D0BDF90830DDED016A07EEBB
:104E8000103AB8EEC77ABDF90A3027EE267A00202C
:104E9000BDEEC77A84ED007A07EE103ABDF90C300A
:104EA00007EE903AB8EEC77AF8EEE77A27EE267A60
:104EB00067EEA67ABDEEC77AFDEEE77A84ED017A59
:104EC000C4ED027ACFE713B502A9002301F8013D32
:104ED0000446FEF7E7FA38B120789DF80730C01A8B
:104EE00018BF012002B010BD0120FBE7FFF7EBBFA8
:104EF00013B50C460DF10701FEF764FF60B19DF894
:104F0000070038B102284FF0010001D120700020C5
:104F100002B010BD2070FBE70120F9E737B50C4661
:104F20000DF105010546FEF724FE10B9012003B07E
:104F300030BD0DF106012846FEF746FE0028F5D0EB
:104F40000DF107012846FEF76AFE0028EED09DF815
:104F50000530A3F108025342534123709DF80630F7
:104F6000A3F110014B424B4163709DF80730A3F150
:104F7000200043424341A3700020D8E7022908B52E
:104F800008D0042908D049B9FEF726FBB0FA80F012
:104F9000400908BD0421F7E70C21F5E70120F8E7F7
:104FA000F2EE0A7AB4EEE70AF1EE10FA08B531D95A
:104FB000F3EE0A7AB4EEE70AF1EE10FA2CD9DFED3F
:104FC0001B7AB4EEE70AF1EE10FA27D9DFED187A72
:104FD000B4EEE70AF1EE10FA22D9DFED167AB4EE5C
:104FE000E70AF1EE10FA1DD9DFED137AB4EEE70A05
:104FF000F1EE10FA18D9DFED117AB4EEE70AF1EE0E
:1050000010FA94BF70218021FEF711FBB0FA80F0F6
:10501000400908BD1021F7E72021F5E73021F3E72B
:105020004021F1E75021EFE76021EDE70000504219
:105030000000D042000050430000D04300405044E4
:1050400010B50379012B044609D083681B6893EDE2
:10505000000AFFF7A5FF012802D0012323710020D9
:1050600010BD000013B50C460DF10701FEF7FCFA68
:1050700050B19DF80700402825D00DD810281CD02D
:1050800004D8B0B1134B2360012014E0202818D0BD
:105090003028F7D1104B11E0602816D003D85028E3
:1050A000F0D10E4B0AE0702811D08028EAD10C4BC9
:1050B00004E00023236002B010BD0A4B23600020EF
:1050C000F9E7094BFAE7094BF8E7094BF6E7094B13
:1050D000F4E700BF000080BF0000504200005043D2
:1050E0000080CF44000050410000D0410000D04279
:1050F0000000D0430040504437B500240D466946B7
:105100000094ADF80440FEF7BDFAB8B19DF8012057
:105110009DF8003003EB02232B809DF803209DF8BF
:10512000023003EB02236B809DF805209DF80430CC
:1051300003EB0223AB80204603B030BD0120FBE728
:1051400013B50C466946FFF7D7FF012809D0BDF813
:1051500000302380BDF802306380BDF80430A380A6
:10516000002002B010BD032908B505D8FEF70CFCDD
:10517000B0FA80F0400908BD0120FCE7012908B51C
:1051800005D8FEF7E4FBB0FA80F0400908BD012025
:10519000FCE708B509B1202905D1FEF781FBB0FA7B
:1051A00080F0400908BD0120FCE7062908B54FF052
:1051B00001030AD803FA01F212F05B0F05D0FEF7E3
:1051C00035FBB0FA80F0400908BD1846FCE7072916
:1051D00008B505D8FEF7F0FAB0FA80F0400908BD2E
:1051E0000120FCE710B500210446FFF7D5F838B1DF
:1051F00000212046FEF749FFB0FA80F0400910BDBB
:105200000120FCE708B50279012A05D1FFF7B2FBBE
:10521000431E5842584108BDF2EE0A7A8368B4EE44
:10522000E70AF1EE10FA1B683BD9F3EE0A7AB4EE06
:10523000E70AF1EE10FA34D9DFED1C7AB4EEE70A92
:10524000F1EE10FA2DD9DFED1A7AB4EEE70AF1EE9D
:1052500010FA26D9DFED177AB4EEE70AF1EE10FA6C
:105260001FD9DFED157AB4EEE70AF1EE10FA18D97E
:10527000DFED127AB4EEE70AF1EE10FA11D9DFEDA4
:10528000107AB4EEE70AF1EE10FA0AD9DFED0D7AE2
:105290009FED0D7AB4EEE70AF1EE10FA88BFF0EE5A
:1052A000477AC3ED007A0020B5E700BF0000504206
:1052B0000000D042000050430000D0430040504462
:1052C0000080CF44002050450020D04510B59FED10
:1052D0000E0A0446FFF796FF012801D1012010BDF8
:1052E00000212046FEF705F90028F7D0402120468E
:1052F000FEF7CBFE0028F1D004212046FFF74CF842
:10530000B0FA80F04009EAE70000D04308B503791D
:10531000012B13D1042924D8DFE801F00E0E030A73
:105320000C002021FEF72DF9B0FA80F0400908BDED
:105330003021F7E74021F5E71021F3E783681B6888
:1053400004290ED8DFE801F0030307090B00064A21
:105350001A600020EBE7054AFAE7054AF8E7054A34
:10536000F6E70120E3E700BF000050410000D04114
:10537000000050420000D04210B500210446FFF763
:1053800028F808B9012010BD00212046FFF77EFB58
:105390000128F7D000212046FFF771FB0128F1D04A
:1053A00000212046FFF764FB0128EBD000212046B6
:1053B000FFF757FB0128E5D000212046FEF7FEFE4F
:1053C0000028DFD000212046FEF7AFFD0028D9D00D
:1053D00000212046FEF7C6FD0028D3D0002120463C
:1053E000FEF7DDFDB0FA80F04009CCE710B59FED87
:1053F000230A0446FFF706FF012801D1012010BD52
:1054000000212046FEF775F80028F7D00821204635
:10541000FEF7C5FD0028F1D004212046FEF7A2FDCD
:105420000028EBD002212046FEF77FFD0028E5D0C2
:1054300008212046FFF72AFB0128DFD00321204660
:10544000FFF71DFB0128D9D003212046FFF710FBF1
:105450000128D3D008212046FFF703FB0128CDD037
:1054600080212046FEF7AAFE0028C7D0082120464A
:10547000FEF7AFFFB0FA80F04009C0E70000D0436C
:1054800010B500210446FEF7FBFF08B9012010BD4E
:1054900000212046FFF7FAFA0128F7D00021204624
:1054A000FFF7EDFA0128F1D000212046FFF7E0FADE
:1054B0000128EBD000212046FEF737FD0028E5D07B
:1054C00000212046FEF74EFD0028DFD000212046B7
:1054D000FEF765FDB0FA80F04009D8E710B59FED02
:1054E0001D0A0446FFF78EFE012801D1012010BDE0
:1054F00000212046FDF7FDFF0028F7D008212046B7
:10550000FEF74DFD0028F1D004212046FEF72AFDCC
:105510000028EBD002212046FEF707FD0028E5D049
:1055200008212046FFF7B2FA0128DFD002212046E9
:10553000FFF7A5FA0128D9D001212046FFF798FAF4
:105540000128D3D040212046FEF79AFFB0FA80F020
:105550004009CCE70000D04310B500210446FEF717
:1055600072FF08B9012010BD00212046FEF77FFE22
:105570000028F7D000212046FEF701FEB0FA80F0A7
:105580004009F0E710B59FED110A0446FFF73AFE17
:10559000012801D1012010BD00212046FDF7A9FFFF
:1055A0000028F7D000212046FEF761FE0028F1D048
:1055B00002212046FEF7E3FD0028EBD02021204603
:1055C000FEF741FFB0FA80F04009E4E70000D04365
:1055D00010B500210446FEF7C2FE08B9012010BD37
:1055E00000212046FEF7F8FC0028F7D000212046D5
:1055F000FEF723FBB0FA80F04009F0E710B5B3EEF8
:105600000A0A0446FFF7FEFD012801D1012010BD62
:1056100000212046FDF76DFF0028F7D00421204629
:10562000FEF70BFB0028F1D020212046FEF7D4FC2A
:105630000028EBD002212046FEF791FEB0FA80F060
:105640004009E4E710B500210446FEF746F908B921
:10565000012010BD00212046FEF7DBFC0028F7D01A
:1056600000212046FEF7E9FA0028F1D0002120466B
:10567000FFF772FA431E58425841EAE710B5B3EEFD
:105680000A0A0446FFF7BEFD012801D1012010BD22
:1056900000212046FDF72DFF0028F7D017212046D6
:1056A000FFF75AFA0128F1D004212046FEF7C5FA87
:1056B0000028EBD040212046FEF7ABFC0028E5D0C7
:1056C00080212046FEF709F9B0FA80F04009DEE7B4
:1056D00010B500210446FEF799FE08B9012010BD5F
:1056E00000212046FEF700FE0028F7D000212046CA
:1056F000FEF7DDFDB0FA80F04009F0E710B59FED50
:105700001A0A0446FFF77EFD012801D1012010BDD1
:1057100000212046FDF7EDFE0028F7D006212046A7
:10572000FEF7E2FD0028F1D000212046FEF79FFDA4
:105730000028EBD000212046FEF77CFD0028E5D0B4
:1057400000212046FEF757FD0028DFD00321204628
:10575000FFF736FA0128D9D010212046FEF756FE71
:10576000B0FA80F04009D2E70000D0430C2910B510
:105770004FF001030BD803FA01F241F21114224257
:1057800005D0FEF71EF9B0FA80F0400910BD1846AA
:10579000FCE7000037B50C460DF106010546FDF7A4
:1057A000ABFF28B39DF80630022B04D1114B2360C8
:1057B000002003B030BD0DF107012846FDF729FF99
:1057C000B0B19DF807300C2B10D8DFE803F0070FBD
:1057D0000F0F090F0F0F0B0F0F0F0D00064BE6E712
:1057E000064BE4E7064BE2E7064BE0E7064B236097
:1057F0000120DEE700008C4000000C4100008C41DD
:1058000000000C4200008C42000080BFF7B500236E
:105810000D46694607460193FEF7FFFE012802D1B7
:10582000012003B0F0BD01A938469DF801609DF844
:105830000040FFF7AFFF0128F2D044EA062424B26B
:1058400007EE904A9DED017AF8EEE77A002067EEC8
:10585000877AFDEEE77AC5ED007AE2E730B585B0EC
:1058600000230C4602A905460193FFF745FC0128D9
:1058700002D1012005B030BD01A92846FFF78AFFFB
:105880000128F6D0BDF90830DDED016A07EE103AC7
:10589000B8EEC77ABDF90A3027EE267A0020BDEEB1
:1058A000C77A84ED007A07EE103ABDF90C3007EEA6
:1058B000903AB8EEC77AF8EEE77A27EE267A67EEE6
:1058C000A67ABDEEC77AFDEEE77A84ED017AC4EDE3
:1058D000027ACFE7182908B505D00AD8082902D0DE
:1058E000102900D051B9FDF784FFB0FA80F04009CB
:1058F00008BD2829F7D003D82029F4D00120F7E7E4
:105900003029F0D03829F8E738B50B78012B0C4650
:105910000CBF082100210546FEF770F808B90120E8
:1059200038BD6378012B0CBF102100212846FEF7FB
:1059300090F80028F3D0A378012B0CBF2021002180
:105940002846FEF7B1F8B0FA80F04009E8E7000019
:1059500013B51D4B1A889B78ADF8042004468DF8CA
:105960000630FFF7B0FA012802D1012002B010BDC5
:1059700004212046FDF7CEFF0028F6D04021204626
:10598000FDF79AFD0028F0D000212046FDF74EFFDC
:105990000028EAD0A3680D4A1B6800211A6020463F
:1059A000FDF7EFFD0028E0D000212046FEF7D0FFF4
:1059B0000128DAD001A92046FFF7A6FF0128D4D09C
:1059C0000123E3700020D1E76B1201080000D042F0
:1059D00010B50379044683B183681968FFF7AAF903
:1059E000012801D1012010BD00212046FDF7C9FD8D
:1059F0000028F7D000202071F5E71846F3E738B506
:105A0000836804461D68FFF75EFA012801D1012072
:105A100038BD2046FFF75CFE0128F8D02046FFF78E
:105A2000E1FB0128F3D02046FFF70CFE0128EED061
:105A30002046FFF725FD0128E9D02046FFF79CFC12
:105A40000128E4D02046FFF7C3FD0128DFD020461F
:105A5000FFF782FD0128DAD02046FFF7B9FF0128C1
:105A6000D5D0002300202B60E070D1E738B50B784B
:105A7000012B0C460CBF082100210546FEF75CF8FF
:105A800008B9012038BD6378012B0CBF102100211B
:105A90002846FEF77CF80028F3D0A378012B0CBF32
:105AA000202100212846FEF79DF8B0FA80F0400939
:105AB000E8E7000013B51D4B1A889B78ADF8042069
:105AC00004468DF80630FFF7FEF9012802D10120C7
:105AD00002B010BD04212046FDF71CFF0028F6D0BF
