:020000040800F2
:10000000FF7F012065A4000841C1000843C100082A
:100010004DC1000853C1000859C10008000000008C
:100020000000000000000000000000005FC10008A8
:1000300065C100080000000069C1000885C1000812
:10004000B5A40008B5A40008B5A40008B5A400082C
:10005000B5A40008B5A40008C5C10008B5A40008EF
:10006000B5A40008B5A40008B5A40008B5A400080C
:10007000B5A40008B5A40008B5A40008B5A40008FC
:10008000B5A40008B5A40008B5A40008000000004D
:10009000000000000000000000000000B5A40008FF
:1000A000B5A40008B5A40008B5A40008B5A40008CC
:1000B00079C100086DC10008D1BE0008B5A40008D0
:1000C000B5A40008B5A40008B5A40008B5A40008AC
:1000D000B5A40008ADC10008B9C1000800000000C7
:1000E00093C10008B5A40008B5A4000800000000F2
:1000F000000000000000000000000000B5A400089F
:1001000000000000B5A40008B5A40008B5A40008CC
:1001100000000000000000000000000000000000DF
:10012000B5A40008B5A40008B5A40008B5A400084B
:10013000B5A400080000000000000000000000005E
:10014000000000000000000000000000B5A400084E
:10015000B5A40008B5A40008B5A40008B5A400081B
:10016000B5A40008B5A400080000000000000000CD
:10017000000000000000000000000000000000007F
:1001800000000000B5A4000800000000000000000E
:04019000B5A400080A
:1001A00010B5054C237833B9044B13B10448AFF3B1
:1001B00000800123237010BD900600200000000085
:1001C000344A010808B5034B1BB103490348AFF398
:1001D000008008BD0000000094060020344A010899
:1001E0004B1C012B98BF70472DE9F003911C9B0815
:1001F000B1F80480B1F802900A8831F802CC80444A
:10020000814402448444D9F80070D8F8006015682D
:10021000DCF80040C9F80060C8F80070CCF8005065
:100220001460D9F80470D8F804605568DCF804400C
:10023000C9F80460C8F80470CCF804505460083160
:10024000013BD5D1BDE8F00370474B1C012B98BF93
:1002500070472DE9F003911C9B08B1F80480B1F8B8
:1002600002900A8831F802CC00EB580800EB5909DB
:1002700000EB520200EB5C0CD9F80070D8F800607B
:100280001568DCF80040C9F80060C8F80070CCF8C8
:10029000005014600831013BDFD1BDE8F003704726
:1002A00010F8012B11F8013B012A28BF9A42F7D020
:1002B000D01A7047034613F8012B002AFBD1181AF5
:1002C000013870470000000000000000000000003E
:1002D00001F0FF01102A2BDB10F0070F08D010F8F7
:1002E000013B013A8B422DD010F0070F42B3F6D1FB
:1002F000F0B441EA012141EA014122F007047FF014
:1003000000070023F0E80256083C85EA010586EA6A
:10031000010685FA47F5A3FA87F586FA47F6A5FAA6
:1003200087F68EB9EED1F0BC01F0FF0102F00702B2
:1003300032B110F8013B013A83EA010313B1F8D15D
:100340000020704701387047002D06BF354603383E
:10035000073815F0010F07D1013015F4807F02BF77
:10036000013015F4C03F0130F0BC0138704700BFC8
:1003700081F0004102E000BF83F0004330B54FEA56
:1003800041044FEA430594EA050F08BF90EA020FC3
:100390001FBF54EA000C55EA020C7FEA645C7FEA56
:1003A000655C00F0E2804FEA5454D4EB5555B8BF79
:1003B0006D420CDD2C4480EA020281EA030382EAEA
:1003C000000083EA010180EA020281EA0303362D7C
:1003D00088BF30BD11F0004F4FEA01314FF4801C4F
:1003E0004CEA113102D0404261EB410113F0004F61
:1003F0004FEA03334CEA133302D0524263EB430318
:1004000094EA050F00F0A780A4F10104D5F1200EB5
:100410000DDB02FA0EFC22FA05F2801841F1000110
:1004200003FA0EF2801843FA05F359410EE0A5F1E4
:1004300020050EF1200E012A03FA0EFC28BF4CF015
:10044000020C43FA05F3C01851EBE37101F00045CB
:1004500007D54FF0000EDCF1000C7EEB00006EEBD8
:100460000101B1F5801F1BD3B1F5001F0CD3490862
:100470005FEA30004FEA3C0C04F101044FEA4452B9
:1004800012F5800F80F09A80BCF1004F08BF5FEA40
:10049000500C50F1000041EB045141EA050130BD20
:1004A0005FEA4C0C404141EB010111F4801FA4F1C3
:1004B0000104E9D191F0000F04BF01460020B1FA18
:1004C00081F308BF2033A3F10B03B3F120020CDA50
:1004D0000C3208DD02F1140CC2F10C0201FA0CF02E
:1004E00021FA02F10CE002F11402D8BFC2F1200C93
:1004F00001FA02F120FA0CFCDCBF41EA0C01904049
:10050000E41AA2BF01EB0451294330BD6FEA040491
:100510001F3C1CDA0C340EDC04F11404C4F120027C
:1005200020FA04F001FA02F340EA030021FA04F38E
:1005300045EA030130BDC4F10C04C4F1200220FAE5
:1005400002F001FA04F340EA0300294630BD21FA23
:1005500004F0294630BD94F0000F83F4801306BFE9
:1005600081F480110134013D4EE77FEA645C18BFDD
:100570007FEA655C29D094EA050F08BF90EA020F74
:1005800005D054EA000C04BF1946104630BD91EA6C
:10059000030F1EBF0021002030BD5FEA545C05D16F
:1005A0004000494128BF41F0004130BD14F58004AE
:1005B0003CBF01F5801130BD01F0004545F0FE4122
:1005C00041F470014FF0000030BD7FEA645C1ABF57
:1005D000194610467FEA655C1CBF0B46024650EA8E
:1005E000013406BF52EA033591EA030F41F40021BA
:1005F00030BD00BF90F0000F04BF0021704730B540
:100600004FF4806404F132044FF000054FF0000114
:1006100050E700BF90F0000F04BF0021704730B5D5
:100620004FF4806404F1320410F0004548BF4042AA
:100630004FF000013EE700BF42004FEAE2014FEAFF
:1006400031014FEA02701FBF12F07F4393F07F4FDA
:1006500081F06051704732F07F4208BF704793F0DD
:100660007F4F04BF41F40021704730B54FF46074F0
:1006700001F0004521F000411CE700BF50EA0102F3
:1006800008BF704730B54FF000050AE050EA01029C
:1006900008BF704730B511F0004502D5404261EB0C
:1006A00041014FF4806404F132045FEA915C3FF44D
:1006B000D8AE4FF003025FEADC0C18BF03325FEAEA
:1006C000DC0C18BF033202EBDC02C2F1200300FA9B
:1006D00003FC20FA02F001FA03FE40EA0E0021FAC0
:1006E00002F11444BDE600BF70B54FF0FF0C4CF4AE
:1006F000E06C1CEA11541DBF1CEA135594EA0C0F60
:1007000095EA0C0F00F0DEF82C4481EA030621EA9A
:100710004C5123EA4C5350EA013518BF52EA0335D5
:1007200041F4801143F4801338D0A0FB02CE4FF087
:100730000005E1FB02E506F00042E0FB03E54FF0B7
:100740000006E1FB03569CF0000F18BF4EF0010EAF
:10075000A4F1FF04B6F5007F64F5407404D25FEAAB
:100760004E0E6D4146EB060642EAC62141EA55515E
:100770004FEAC52040EA5E504FEACE2EB4F1FD0CA0
:1007800088BFBCF5E06F1ED8BEF1004F08BF5FEA1E
:10079000500E50F1000041EB045170BD06F00046D0
:1007A00046EA010140EA020081EA0301B4EB5C047D
:1007B000C2BFD4EB0C0541EA045170BD41F4801175
:1007C0004FF0000E013C00F3AB8014F1360FDEBF9A
:1007D000002001F0004170BDC4F10004203C35DA76
:1007E0000C341BDC04F11404C4F1200500FA05F3F9
:1007F00020FA04F001FA05F240EA020001F000429A
:1008000021F0004110EBD37021FA04F642EB06010F
:100810005EEA430E08BF20EAD37070BDC4F10C0439
:10082000C4F1200500FA04F320FA05F001FA04F2FD
:1008300040EA020001F0004110EBD37041F10001E9
:100840005EEA430E08BF20EAD37070BDC4F12005F4
:1008500000FA05F24EEA020E20FA04F301FA05F25C
:1008600043EA020321FA04F001F0004121FA04F204
:1008700020EA020000EBD3705EEA430E08BF20EAD4
:10088000D37070BD94F0000F0FD101F0004640000E
:1008900041EB010111F4801F08BF013CF7D041EA90
:1008A000060195F0000F18BF704703F00046520094
:1008B00043EB030313F4801F08BF013DF7D043EA65
:1008C0000603704794EA0C0F0CEA135518BF95EA1B
:1008D0000C0F0CD050EA410618BF52EA4306D1D1A2
:1008E00081EA030101F000414FF0000070BD50EAC1
:1008F000410606BF1046194652EA430619D094EA4B
:100900000C0F02D150EA013613D195EA0C0F05D134
:1009100052EA03361CBF104619460AD181EA030188
:1009200001F0004141F0FE4141F470014FF0000040
:1009300070BD41F0FE4141F4780170BD70B54FF0DB
:10094000FF0C4CF4E06C1CEA11541DBF1CEA13555B
:1009500094EA0C0F95EA0C0F00F0A7F8A4EB05043D
:1009600081EA030E52EA03354FEA013100F0888034
:100970004FEA03334FF0805545EA131343EA1263FD
:100980004FEA022245EA111545EA10654FEA0026B2
:100990000EF000419D4208BF964244F1FD0404F56B
:1009A000407402D25B084FEA3202B61A65EB0305C7
:1009B0005B084FEA32024FF480104FF4002CB6EB84
:1009C000020E75EB030E22BFB61A754640EA0C0004
:1009D0005B084FEA3202B6EB020E75EB030E22BF44
:1009E000B61A754640EA5C005B084FEA3202B6EB85
:1009F000020E75EB030E22BFB61A754640EA9C0044
:100A00005B084FEA3202B6EB020E75EB030E22BF13
:100A1000B61A754640EADC0055EA060E18D04FEAD1
:100A2000051545EA16754FEA06164FEAC30343EA71
:100A300052734FEAC2025FEA1C1CC0D111F4801F3E
:100A40000BD141EA00014FF000004FF0004CB6E737
:100A500011F4801F04BF01430020B4F1FD0C88BFD6
:100A6000BCF5E06F3FF6AFAEB5EB030C04BFB6EBE1
:100A7000020C5FEA500C50F1000041EB045170BDD4
:100A80000EF0004E4EEA113114EB5C04C2BFD4EB01
:100A90000C0541EA045170BD41F480114FF0000E85
:100AA000013C90E645EA060E8DE60CEA135594EA01
:100AB0000C0F08BF95EA0C0F3FF43BAF94EA0C0F04
:100AC0000AD150EA01347FF434AF95EA0C0F7FF479
:100AD00025AF104619462CE795EA0C0F06D152EACD
:100AE00003353FF4FDAE1046194622E750EA4106B1
:100AF00018BF52EA43067FF4C5AE50EA41047FF4C2
:100B00000DAF52EA43057FF4EBAE12E74FEA410224
:100B100012F5001215D211D56FF47873B3EB62524F
:100B200012D94FEAC12343F0004343EA505311F076
:100B3000004F23FA02F018BF404270474FF0000008
:100B4000704750EA013005D111F0004008BF6FF046
:100B5000004070474FF00000704700BF4FEA41026D
:100B6000B2F1E04324BFB3F5001CDCF1FE5C0DD90B
:100B700001F0004C4FEAC0024CEA5070B2F1004F55
:100B800040EB830008BF20F00100704711F0804F58
:100B900021D113F13872BCBF01F00040704741F41D
:100BA00080114FEA5252C2F11802C2F1200C10FA21
:100BB0000CF320FA02F018BF40F001004FEAC12305
:100BC0004FEAD32303FA0CFC40EA0C0023FA02F3A9
:100BD0004FEA4303CCE77FEA625307D150EA01337F
:100BE0001EBF4FF0FE4040F44000704701F000404F
:100BF00040F0FE4040F40000704700BF7BB972B97E
:100C00000029BEBF00204FF0004106E008BF0028C9
:100C10001CBF6FF000414FF0FF3000F0A5B9ADF1FF
:100C2000080C6DE904CE002909DB002B1ADB00F06B
:100C300035F8DDF804E0DDE9022304B070474042F6
:100C400061EB4101002B1BDB00F028F8DDF804E02C
:100C5000DDE9022304B0404261EB4101524263EB03
:100C600043037047524263EB430300F017F8DDF88B
:100C700004E0DDE9022304B0404261EB410170472A
:100C8000524263EB430300F009F8DDF804E0DDE9CC
:100C9000022304B0524263EB430370472DE9F0474F
:100CA000089E04468846002B4BD18A42154667D9D8
:100CB000B2FA82F24AB1C2F1200701FA02F320FA35
:100CC00007F7954047EA030894404FEA154E230C76
:100CD000B8FBFEF71FFA85FC0EFB178843EA0843B2
:100CE00007FB0CF1994209D9EB1807F1FF3080F0AE
:100CF0001B81994240F21881023F2B445B1AA4B237
:100D0000B3FBFEF00EFB103344EA034400FB0CFC83
:100D1000A44509D92C1900F1FF3380F00781A445BF
:100D200040F2048102382C4440EA0740A4EB0C0452
:100D300000271EB1D4400023C6E900433946BDE870
:100D4000F0878B4209D9002E00F0EB800027C6E91E
:100D5000000138463946BDE8F087B3FA83F7002F23
:100D600047D18B4202D3824200F2FA80841A61EBAF
:100D7000030301209846002EE0D0C6E90048DDE7D5
:100D800002B9FFDEB2FA82F2002A40F08F80491BDE
:100D90004FEA154E1FFA85F80127B1FBFEFC230C24
:100DA0000EFB1C1143EA014308FB0CF1994207D9E1
:100DB000EB180CF1FF3002D2994200F2CD8084464C
:100DC000591AA3B2B1FBFEF00EFB101443EA04441F
:100DD00008FB00F8A04507D92C1900F1FF3302D217
:100DE000A04500F2B6801846A4EB080440EA0C4087
:100DF0009FE7C7F1200CBB4022FA0CFE4EEA030E1F
:100E000001FA07F420FA0CF521FA0CF34FEA1E4818
:100E10002543B3FBF8F92C0C08FB19331FFA8EFAA3
:100E200044EA034309FB0AF49C4202FA07F200FA7F
:100E300007F10BD91EEB030309F1FF3080F0878027
:100E40009C4240F28480A9F1020973441B1BADB29D
:100E5000B3FBF8F008FB103345EA034400FB0AFA41
:100E6000A24508D91EEB040400F1FF336BD2A24562
:100E700069D90238744440EA0940A0FB0289A4EB16
:100E80000A044C45C2464B4654D351D0002E69D07B
:100E9000B1EB0A0564EB030404FA0CFCFD40FC40D2
:100EA0004CEA0505C6E90054002747E7C2F12003D4
:100EB00020FA03F7954001FA02F021FA03F34FEA12
:100EC000154E3843010CB3FBFEF71FFA85F80EFBF5
:100ED000173341EA034107FB08F38B4204FA02F49B
:100EE00007D9691807F1FF3C2FD28B422DD9023F59
:100EF0002944CB1A81B2B3FBFEF00EFB103341EA5A
:100F0000034100FB08F38B4207D9691800F1FF3C4D
:100F100017D28B4215D902382944C91A40EA07472B
:100F20003BE73746304609E70746E7E61846FBE663
:100F30004145ABD2B8EB020A69EB0E020138134609
:100F4000A4E76046E9E7184695E76746D1E781469A
:100F50007CE702382C4447E7ACF1020C2B442FE726
:100F6000384608E73746E9E6704700BF012A10B562
:100F70001C4688BF41F080011346224606F064FDFE
:100F8000003018BF012010BD012A10B51C4688BFD3
:100F900041F080011346224606F03EFD003018BFA6
:100FA000012010BD08B501220B460F21FFF7DEFF1F
:100FB000003018BF012008BD2DE9F74F0D4601ABE9
:100FC000022230218346FFF7D1FF18B1012003B080
:100FD000BDE8F08F01AB0222362158469DF804A0EF
:100FE0009DF80560FFF7C2FF0028EFD101AB022298
:100FF0003A2158469DF805909DF80480FFF7B6FF0A
:101000000028E3D101AB0222282158469DF8057043
:101010009DF80440FFF7AAFF0028D7D19DF80510DE
:101020009DF8043048EA092843EA01230FFA88F8BA
:101030001BB2A3EB080306EE903A4FEA5A0ACAEB3A
:10104000560344EA0724B8EEE67A24B206EE903A54
:10105000A4EB080407EE904AF8EEE66AB8EEE76AF9
:1010600067EE266A07EE90AA86EE867AF8EEE77AB1
:1010700077EE277AB2EE047A67EE877A9FED0B7AE5
:10108000F4EEC77AF1EE10FA0BDCF5EEC07AF1EE71
:1010900010FA09D4FCEEE77A17EE903A9BB22B8057
:1010A00095E74FF47A73FAE70346F8E700007A44CD
:1010B0002DE9F04F85B00F4603AB022232210646E0
:1010C000FFF754FF18B1012005B0BDE8F08F0DF116
:1010D0000B03012235213046FFF748FF0028F2D1EB
:1010E00003AB04223C2130469DF80B409DF80CB028
:1010F0009DF80D90FFF73AFF0028E4D19DF80E30DF
:101100000193022203AB2A2130469DF80DA09DF8E1
:101110000C509DF80F80FFF729FF0028D3D1230240
:1011200003F4407343EA0B0B9DF80D209DF80C303F
:1011300045EA0A2543EA02232DB21BB2A4015B1B38
:1011400004F4407407EE903A4FEADB0B44EA0909D5
:10115000019BCBEBD909B8EEE77A07EE909A43EA08
:101160000828F8EEE77A0FFA88F8A8EB050567EE8D
:10117000277A07EE105AB8EEC77AC7EE876A07EEED
:1011800090BAF8EEE77AB2EE047A76EEA77A67EED6
:10119000877AFDEEE77A17EE903A3B8094E737B511
:1011A0000D4614460DF1070301222721FFF7DEFE4D
:1011B00048B99DF80730C3F3400203F001032A70D9
:1011C000237003B030BD0120FBE713B501220DF100
:1011D000070320210446FFF7C9FE88B99DF80730B0
:1011E00063F07F038DF8073001220DF10703202102
:1011F0002046FFF7C9FE003018BF012002B010BD25
:101200000120FBE713B501220DF10703202104465D
:10121000FFF7ACFE88B99DF8073003F07F038DF827
:10122000073001220DF1070320212046FFF7ACFE15
:10123000003018BF012002B010BD0120FBE713B53C
:1012400001220C460DF107032021FFF78FFE30B974
:101250009DF8073003F00303237002B010BD012096
:10126000FBE700000A4608B50146024811F096FE69
:10127000FEE700BFE8AB0408012937B505460C4678
:1012800004D940F263211048FFF7ECFF0DF107038A
:1012900001222021FFF76AFE98B99DF8071021F07E
:1012A000040141EA84018DF807100DF107030122C2
:1012B00020212846FFF768FE003018BF012003B048
:1012C00030BD0120FBE700BF15AC0408032937B58A
:1012D00005460C4604D940F2BA210F48FFF7C2FF79
:1012E0000DF1070301222021FFF740FE90B99DF880
:1012F000073023F003031C4301220DF107032021D3
:1013000028468DF80740FFF73FFE003018BF012048
:1013100003B030BD0120FBE715AC040813B50C4643
:101320000DF107020DF10601FFF739FF012806D084
:101330009DF8060028B1012805D12070002002B0D8
:1013400010BD2070FBE70120F9E713B50C460DF145
:1013500007020DF10601FFF722FF012806D09DF8D4
:10136000070028B1012805D12070002002B010BD6F
:101370002070FBE70120F9E707B502AB03F8012D68
:101380000122FFF701FE431E5842584103B05DF8A9
:1013900004FBFFF7F1BF08B513460122FFF7E6FD96
:1013A000431E5842584108BDFFF7F5BFF7EE007ADB
:1013B000B4EEE70AF1EE10FA08B50ED9F1EE0C7AA8
:1013C000B4EEE70AF1EE10FA94BF02210321FFF711
:1013D0007DFF431E5842584108BD0121F7E708B57B
:1013E00041B1042908D80321FFF770FF431E58427A
:1013F000584108BD0121F7E70120FAE7FFF7EFBFE9
:1014000013B50C460DF10701FFF719FF01280AD0AB
:101410009DF80730032B0FD8DFE803F002070A0C12
:1014200000232360002002B010BD4FF07E53F8E788
:10143000034BF6E7034BF4E7034B23600120F2E78D
:101440000000E04000004841000080BFFFF7D8BF27
:1014500037B50D4602A9002421F8024DFFF7ACFD77
:1014600001280CD0BDF8063007EE903AF8EE677A06
:10147000F2EE046A87EEA67A204685ED007A03B084
:1014800030BD13B502A9002301F8013D0446FFF762
:1014900089FD012805D020789DF80730C01A18BFB3
:1014A000012002B010BDFFF7ECBF37B50D4602A911
:1014B000002421F8024DFFF7FBFD01280CD0BDF9F7
:1014C000063007EE903AF8EEE77AF2EE046A87EE1D
:1014D000A67A204685ED007A03B030BD10B50379B9
:1014E000044683B183681B681B68DB7833B1A3684B
:1014F0001B681B6800209870207110BDFFF782FEEA
:101500000128F4D1F9E71846F7E7836810B51B689E
:101510001B685B78044633B1A3681B681B68002016
:101520001870E07010BDFFF7D9FF0128F4D1F9E77A
:1015300010B50379012B04460AD083681B681B6829
:10154000DB783BB1A3681B681A6801239370237191
:10155000002003E0FFF739FE0128F3D110BD10B5DC
:101560000446FFF78EFF012801D1012010BD20465F
:10157000FFF748FE0128F8D001212046FFF77CFE46
:101580000128F2D000212046FFF729FF431E5842D0
:101590005841EBE7836810B51B681B685B7804460D
:1015A0003BB1A3681B681A68012313700020E37025
:1015B00010BDFFF7D4FF0128F3D1F9E7836810B518
:1015C0001B681B681B7804463BB1A3681B681A683C
:1015D000012353700020E37010BDFFF7C0FF012806
:1015E000F3D1F9E7FFF74DBFFFF70ABFFFF7F7BEEB
:1015F00008B5FFF7D7FC431E5842584108BD08B54F
:10160000FFF7D0FC431E5842584108BDF7EE007A60
:10161000B4EEE70AF1EE10FA08B50ED9F1EE0C7A45
:10162000B4EEE70AF1EE10FA94BF02210321FFF7AE
:101630004DFE431E5842584108BD0121F7E710B541
:101640000379012B04460AD083681B681B689B78CA
:101650003BB1A3681B681A680123D3702371002073
:1016600003E0FFF7B2FD0128F3D110BD10B50379F7
:10167000044683B183681B681B689B7833B1A368F9
:101680001B681B680020D870207110BDFFF7BAFDE1
:101690000128F4D1F9E71846F7E7836810B51B680D
:1016A0001B681B78044633B1A3681B681B680020C5
:1016B0005870E07010BDFFF7D9FF0128F4D1F9E7A9
:1016C000012A10B51C4688BF41F08001134622460E
:1016D00006F0BAF9003018BF012010BD012A10B57C
:1016E0001C4688BF41F080011346224606F094F95B
:1016F000003018BF012010BD37B50C460DF10703AF
:10170000012222210546FFF7DBFF90B99DF8073043
:1017100023F010031C4301220DF107032221284668
:101720008DF80740FFF7DAFF003018BF012003B043
:1017300030BD0120FBE737B50C460DF10703012250
:101740002E210546FFF7BCFF90B99DF8073003F046
:101750003F031C4301220DF107032E2128468DF87B
:101760000740FFF7BBFF003018BF012003B030BDBA
:101770000120FBE708B501220B460F21FFF7A0FF70
:10178000003018BF012008BD37B50C460DF1070326
:10179000012223210546FFF793FF90B99DF80730FA
:1017A00023F030031C4301220DF1070323212846B7
:1017B0008DF80740FFF792FF003018BF012003B0FB
:1017C00030BD0120FBE710B50B460C46012223215A
:1017D000FFF776FF20B9237803F03003237010BDA4
:1017E0000120FCE710B50B460C4601222721FFF72C
:1017F00067FF28B1237803F001032370002010BD98
:101800000120FCE737B50C460DF10703012220212A
:101810000546FFF755FF90B99DF8073003F00F0319
:101820001C4301220DF10703202128468DF80740B3
:10183000FFF754FF003018BF012003B030BD012076
:10184000FBE710B50B460C4601222021FFF738FFBD
:1018500020B9237823F00F03237010BD0120FCE78B
:1018600037B50C460DF10703012223210546FFF78A
:1018700027FF90B99DF8073003F07F031C43012236
:101880000DF10703232128468DF80740FFF726FFB7
:10189000003018BF012003B030BD0120FBE737B591
:1018A0000C460DF10703012220210546FFF708FF32
:1018B00090B99DF8073023F007031C4301220DF176
:1018C0000703202128468DF80740FFF707FF003067
:1018D00018BF012003B030BD0120FBE710B50B4657
:1018E0000C4601222021FFF7EBFE20B9237803F0FC
:1018F0000703237010BD0120FCE737B50C460DF13E
:101900000703012220210546FFF7DAFE90B99DF872
:10191000073023F001031C4301220DF107032021AE
:1019200028468DF80740FFF7D9FE003018BF012088
:1019300003B030BD0120FBE710B50B460C46012279
:101940002021FFF7BDFE20B9237803F001032370A7
:1019500010BD0120FCE737B50C460DF1070301224D
:1019600020210546FFF7ACFE90B99DF8073023F023
:1019700002031C4301220DF10703202128468DF8A4
:101980000740FFF7ABFE003018BF012003B030BDA9
:101990000120FBE710B50B460C4601222021FFF782
:1019A0008FFE20B9237803F00203237010BD0120BD
:1019B000FCE737B50C460DF107030122202105464F
:1019C000FFF77EFE90B99DF8073023F004031C4317
:1019D00001220DF10703202128468DF80740FFF76B
:1019E0007DFE003018BF012003B030BD0120FBE7B1
:1019F00010B50B460C4601222021FFF761FE20B9ED
:101A0000237803F00403237010BD0120FCE708B520
:101A100006220B462821FFF753FE003018BF012095
:101A200008BD012A08B50B4607D102222821FFF77D
:101A300047FE003018BF012008BD022A01D12A212B
:101A4000F5E7042A02D102222C21F0E70020F3E777
:101A5000F7B502AD002305F8013D0E462B460122E5
:101A600020210746FFF72CFE10B1012003B0F0BD86
:101A70002B460122232138469DF80740FFF720FE20
:101A80000028F2D19DF80730A410C3F3C00304F07E
:101A9000020423433370E9E737B50C460DF1070321
:101AA000012220210546FFF70BFE10B1012003B0F3
:101AB00030BD9DF80720A30022F0080203F00803C0
:101AC00013438DF8073001220DF10703202128462A
:101AD000FFF704FE0028E9D10DF1070301222321BD
:101AE0002846FFF7EDFD0028E0D19DF80730E4001F
:101AF00023F0080304F008041C4301220DF107033E
:101B0000232128468DF80740FFF7E8FD003018BF75
:101B10000120CCE737B50C460DF107030122212146
:101B20000546FFF7CDFD90B99DF8073003F03F0360
:101B30001C4301220DF10703212128468DF807409F
:101B4000FFF7CCFD003018BF012003B030BD0120ED
:101B5000FBE737B50C460DF10703012221210546AD
:101B6000FFF7AEFD90B99DF8073023F030031C431A
:101B700001220DF10703212128468DF80740FFF7C8
:101B8000ADFD003018BF012003B030BD0120FBE7E0
:101B900037B50C460DF10703012221210546FFF759
:101BA0008FFD90B99DF8073023F008031C430122F4
:101BB0000DF10703212128468DF80740FFF78EFD20
:101BC000003018BF012003B030BD0120FBE707B58E
:101BD00004290DF107034FF0010208D12D21FFF771
:101BE0006FFD003018BF012003B05DF804FB02292F
:101BF0000CBF2B212921F2E708B511B1012906D12B
:101C00001021FFF779FD431E5842584108BD0120BD
:101C1000FCE708B5032910D8DFE801F00D02090B35
:101C20000221FFF7D4FF431E5842584108BD04214A
:101C3000F7E70721F5E70121F3E70120F6E708B50B
:101C40000021FFF7A5FF431E5842584108BD08B5C3
:101C5000032910D8DFE801F00D02090B0221FFF77C
:101C60001EFE431E5842584108BD0421F7E70721D4
:101C7000F5E70121F3E70120F6E713B50C460DF176
:101C80000701FFF72BFE01280CD09DF80730013B20
:101C9000062B11D8DFE803F00408100C10100E001A
:101CA0000020207002B010BD012323700020F9E74E
:101CB0000223FAE70323F8E70120F3E7012908B537
:101CC00005D003D3022902D0012005E00021FFF74F
:101CD000E3FE431E5842584108BD13B50C460DF1B2
:101CE0000701FFF7B5FE01280AD09DF80730012B48
:101CF00008D003D3022B05D0012001E00020207082
:101D000002B010BD23700020FAE713B500230C4683
:101D1000ADF80430032A19D8DFE802F016021214D5
:101D2000022201A9FFF77DFE012807D09DF80520BA
:101D30009DF8043003EB02232380002002B010BD85
:101D40000422EEE70722ECE70122EAE70120F5E7AB
:101D500013B50C460DF10701FFF744FD012806D02D
:101D60009DF8070028B1012805D12070002002B09D
:101D700010BD2070FBE70120F9E707B502AB03F8BF
:101D8000012D0122FFF7AAFC431E5842584103B01F
:101D90005DF804FB08B513460122FFF791FC431ED2
:101DA0005842584108BD37B50C460DF105010546AE
:101DB000FFF7C2FD012802D1012003B030BD0DF1B3
:101DC00006012846FFF7E6FD0128F5D00DF10701D1
:101DD0002846FFF70DFE0128EED09DF805305A1E6B
:101DE0005342534123709DF80630991E4B424B419C
:101DF00063709DF80730181F43424341A3700020D1
:101E0000DBE7F0EE007AB4EEE70AF1EE10FA08B57F
:101E100015D9F1EE007AB4EEE70AF1EE10FA10D916
:101E2000F2EE007AB4EEE70AF1EE10FA94BF202148
:101E30003021FFF7A9FC431E5842584108BD00213C
:101E4000F7E71021F5E7022908B508D0042908D0E2
:101E500049B9FFF799FC431E5842584108BD10216B
:101E6000F7E72021F5E70120F8E7000013B50C465D
:101E70000DF10701FFF7A7FC012813D09DF807001B
:101E8000102811D004D850B10B4B2360012009E079
:101E900020280ED03028F7D14FF0834306E04FF0D2
:101EA0008043236002B010BD4FF0814323600020C7
:101EB000F8E74FF08243F9E7000080BF37B50C46E2
:101EC0000DF107010546FFF7C3FD012801D10120EF
:101ED00027E00DF106012846FFF775FC0128F6D032
:101EE0009DF8060010281ED003D860B11E4B236059
:101EF000EDE7202824D03028F8D19DF807000228EB
:101F00002AD11A4B04E09DF80730022B02D1184B5E
:101F100023601FE00BB9174BFAE7012B01D1164BD9
:101F2000236003B030BD9DF80700022801D1134B98
:101F3000EEE708B9124BF3E701280BD1114BE7E7A5
:101F40009DF80730022B01D10F4BE1E7002BDED0CB
:101F5000012BE0D00020E4E708B90C4BE0E70128B2
:101F6000F8D10B4BD4E700BF000080BF14AE3C4358
:101F70007B147A41713D7A4048E17A3F0000FA4192
:101F800085EBF9409A99F93F00007A42CDCC3B426B
:101F90001F853B4110B52DED028B82B00DF107017D
:101FA0000446B0EE408AFFF753FD012844D09DF867
:101FB0000730F7EE007A022BB4EEE78A40D1F1EE5B
:101FC00010FA6ED9F2EE047AB4EEE78AF1EE10FA66
:101FD00069D9F3EE097AB4EEE78AF1EE10FA64D922
:101FE000DFED367AB4EEE78AF1EE10FA5FD9DFED75
:101FF000347AB4EEE78AF1EE10FA5AD9DFED317A8D
:10200000B4EEE78AF1EE10FA55D9DFED2F7AB4EE8F
:10201000E78AF1EE10FA42D9DFED2C7AB4EEE78AC6
:10202000F1EE10FA98BF802188BF90212046FFF77B
:10203000E9FB431E5842584102B0BDEC028B10BD73
:10204000F1EE10FA2DD9F2EE047AB4EEE78AF1EE51
:1020500010FA28D9F3EE097AB4EEE78AF1EE10FA15
:1020600023D9DFED167AB4EEE78AF1EE10FA1ED925
:10207000DFED137AB4EEE78AF1EE10FA19D9DFED4D
:10208000117AB4EEE78AF1EE10FA14D9DFED0E7A88
:10209000B4EEE78AF1EE10FA98BF7021C4E7702120
:1020A000C4E71021C2E72021C0E73021BEE740216C
:1020B000BCE75021BAE76021B8E700BF0000484202
:1020C0000000C842000048430000C8430080CA44E2
:1020D00038B50379012B044611D083681D6829792E
:1020E000FFF7DAFC012801D1012038BD95ED000A87
:1020F0002046FFF74FFF0128F6D00123237100206F
:10210000F3E7000037B50C460DF107010546FFF770
:102110009FFC012801D101202EE00DF10601284687
:10212000FFF78FFB0128F6D09DF8060040282CD041
:102130000CD8102822D003D8E0B11A4B2360EAE76C
:10214000202820D03028F8D1174B19E0702820D053
:1021500005D850281BD06028EFD1144B10E0802800
:1021600019D09028E9D19DF80730022B0CBF104BF5
:10217000104B05E00023236003B030BD4FF07E53C9
:1021800023600020F8E70C4BFAE70C4BF8E70C4B08
:10219000F6E70C4BF4E79DF80730022BCDD10A4B44
:1021A000EEE700BF000080BF0000C84100004843C8
:1021B0000000A8450000A84400002041000048425B
:1021C0000000C8420000C8430080CA44F0B585B092
:1021D00002AC00260D460DF1070107460296A680C7
:1021E000FFF736FC012835D021463846FFF70FFCB3
:1021F00001282FD09DF80700174F3346A6F58056CB
:1022000002280DD1E21851780AB2090648BF62F0DF
:10221000FF02EA520233062BF2D1002005B0F0BDD6
:1022200058B9E2185178E25C920902EB810211B2CE
:10223000920548BF3943E952ECE70128EAD1E21898
:102240005178E25C120902EB011211B2120548BF8B
:102250003143F0E70120E1E700FCFFFF13B50C4636
:102260006946FFF7B3FF012809D0BDF8003023808D
:10227000BDF802306380BDF80430A380002002B0B6
:1022800010BD30B585B000230C4602A90546019368
:10229000FFF79CFF012802D1012005B030BD01A944
:1022A0002846FFF70BFE0128F6D0BDF90830DDED1A
:1022B000016A07EE103AB8EEC77ABDF90A3027EE88
:1022C000267A0020BDEEC77A84ED007A07EE103A38
:1022D000BDF90C3007EE903AB8EEC77AF8EEE77A1F
:1022E00027EE267A67EEA67ABDEEC77AFDEEE77A8C
:1022F00084ED017AC4ED027ACFE708B5FFF73AFA28
:10230000431E5842584108BD13B502A9002301F8E5
:10231000013D0446FFF7F1FF012805D020789DF824
:102320000730C01A18BF012002B010BD38B50546ED
:10233000032916D8DFE801F00D02090B4021032A1A
:102340000FD8DFE802F0140810128021F7E7C0214F
:10235000F5E70021F3E710242846FFF7DBFB01280F
:1023600007D1012012E02024F6E73024F4E700240E
:10237000F2E721462846FFF7ECFB0128F1D00821BF
:102380002846FFF705FC431E5842584138BD38B572
:102390000C4609784A1E514251410546FFF7ADFAF5
:1023A000012801D1012038BD6378012B0CBF022127
:1023B00000212846FFF7CFFA0128F3D0A378012B9C
:1023C0000CBF042100212846FFF7F3FA431E5842B0
:1023D0005841E8E773B51E4B1A889B788DF8063094
:1023E0008368ADF8042004461E68FFF78DFF0128BE
:1023F00002D1012002B070BD80212046FFF730FAE3
:102400000128F6D000212046FFF795F90128F0D0E9
:10241000104B336000212046FFF7F4F90128E8D083
:102420000025357129462046FFF736FB0128E0D00C
:1024300029462046FFF707FD0128DAD001A92046EA
:10244000FFF7A5FF0128D4D00123E3702846D1E788
:10245000504A01080000C84210B52DED028B0279E8
:10246000012A82B0B0EE408A08D1FFF793FD431EE7
:102470005842584102B0BDEC028B10BD83680DF18B
:1024800007011C68FFF7E4FA0128F3D09DF8073034
:10249000F7EE007A022BB4EEE78A3ED1F1EE10FAA5
:1024A00037D9F2EE047AB4EEE78AF1EE10FA30D9B9
:1024B000F3EE097AB4EEE78AF1EE10FA29D9DFEDEE
:1024C0002E7AB4EEE78AF1EE10FA22D9DFED2B7AFC
:1024D000B4EEE78AF1EE10FA1BD9DFED297AB4EEFB
:1024E000E78AF1EE10FA14D9DFED267AB4EEE78A26
:1024F000F1EE10FA0BD9DFED247A9FED247AB4EED9
:10250000E78AF1EE10FA88BFF0EE477A01E0DFEDDE
:102510001D7AC4ED007A0020ACE7F1EE10FAF8D98C
:10252000F2EE047AB4EEE78AF1EE10FAF1D9F3EEA6
:10253000097AB4EEE78AF1EE10FAEAD9DFED0E7A05
:10254000B4EEE78AF1EE10FAE3D9DFED0C7AB4EEDF
:10255000E78AF1EE10FADCD9DFED097AB4EEE78A0A
:10256000F1EE10FAD5D9DFED077A9FED097AB4EED6
:10257000E78AF1EE10FAC6E7000048420000C842C0
:10258000000048430000C8430080CA440000A8453A
:102590000000A84408B50379012B15D1042929D8D6
:1025A000DFE801F010030A0C0E002021FFF72AF9E2
:1025B000431E5842584108BD3021F7E74021F5E756
:1025C0005021F3E71021F1E783681B68042911D833
:1025D000DFE801F003080A0C0E004FF07E521A608B
:1025E0000020E8E7044AFAE7044AF8E7044AF6E775
:1025F000044AF4E70120DEE7000020410000C84162
:10260000000048420000C84238B503790446BBB117
:1026100083681D682946FFF775FD012801D1012057
:1026200038BD291D2046FFF713FA0128F7D00021F5
:102630002046FFF7E7F80128F1D000202071EFE7EE
:102640001846EDE738B5836804461D68FFF75CFE61
:10265000012801D1012038BD2046FFF7D5FF012810
:10266000F8D0002000232B602871E070F3E72DE9FB
:10267000F04106460F46154698460024A54202DC66
:102680000020BDE8F0813919012308EB0402C9B22A
:10269000304605F0D9F908B90134EFE70120F0E739
:1026A0002DE9F04106460F46154698460024A542FE
:1026B00002DC0020BDE8F0813919012308EB040297
:1026C000C9B2304605F0A8F908B90134EFE7012096
:1026D000F0E708B501220B460F21FFF7C8FF0030D5
:1026E00018BF012008BD37B50C460DF107030122C4
:1026F0001A210546FFF7BBFF90B99DF8073023F07C
:1027000001031C4301220DF107031A2128468DF80D
:102710000740FFF7C5FF003018BF012003B030BDF0
:102720000120FBE737B50C460DF10703012210210C
:102730000546FFF79CFF90B99DF8073023F0700322
:102740001C4301220DF10703102128468DF8074094
:10275000FFF7A6FF003018BF012003B030BD0120F5
:10276000FBE713B501220C460DF107031021FFF71B
:102770007EFF30B99DF8073003F07003237002B07C
:1027800010BD0120FBE737B50D460DF1070301220F
:1027900010210446FFF76BFF98B99DF8071021F050
:1027A000080141EAC5018DF807100DF10703012268
:1027B00010212046FFF774FF003018BF012003B03E
:1027C00030BD0120FBE737B50C460DF107030122B0
:1027D00010210546FFF74BFF90B99DF8073023F015
:1027E00004031C4301220DF10703102128468DF834
:1027F0000740FFF755FF003018BF012003B030BD80
:102800000120FBE773B501220D460DF107031021EE
:102810000646FFF72CFF044680B99DF8073023F0E9
:1028200002031D4301220DF10703102130468DF8EC
:102830000750FFF735FF204602B070BD0124FAE7CC
:1028400037B50D460DF10703012211210446FFF7AC
:102850000EFF98B99DF8071021F0400141EA85115B
:102860008DF807100DF10703012211212046FFF713
:1028700017FF003018BF012003B030BD0120FBE777
:1028800037B50D460DF10703012211210446FFF76C
:10289000EEFE98B99DF8071021F0200141EA45119C
:1028A0008DF807100DF10703012211212046FFF7D3
:1028B000F7FE003018BF012003B030BD0120FBE758
:1028C00037B50D460DF10703012211210446FFF72C
:1028D000CEFE98B99DF8071021F0100141EA0511CC
:1028E0008DF807100DF10703012211212046FFF793
:1028F000D7FE003018BF012003B030BD0120FBE738
:1029000037B50D460DF10703012212210446FFF7EA
:10291000AEFE98B99DF8071021F0080141EAC50103
:102920008DF807100DF10703012212212046FFF751
:10293000B7FE003018BF012003B030BD0120FBE717
:1029400037B50D460DF10703012212210446FFF7AA
:102950008EFE98B99DF8071021F0100141EA05118B
:102960008DF807100DF10703012212212046FFF711
:1029700097FE003018BF012003B030BD0120FBE7F7
:1029800037B50D460DF10703012212210446FFF76A
:102990006EFE98B99DF8071021F0200141EA45111B
:1029A0008DF807100DF10703012212212046FFF7D1
:1029B00077FE003018BF012003B030BD0120FBE7D7
:1029C00013B501220C460DF107032721FFF74FFE37
:1029D00078B99DF8073003F00102627003F002023B
:1029E0002270C3F34012C3F30013A270E37002B06D
:1029F00010BD0120FBE713B503220C4601AB2821D3
:102A0000FFF735FE80B99DF806309DF805201B04C0
:102A100043EA02239DF8042013431A0248BF43F0FF
:102A20007F43236002B010BD0120FBE713B50C46C5
:102A300001A9FFF7E0FF48B9019A642353434FF41B
:102A4000805293FBF2F3236002B010BD0120FBE73C
:102A500013B502220C4601AB2B21FFF708FE40B94B
:102A60009DF805209DF8043003EB0223238002B07B
:102A700010BD0120FBE713B50C460DF10601FFF771
:102A8000E7FF38B9BDF906300A2293FBF2F3238041
:102A900002B010BD0120FBE737B50C460DF107036E
:102AA000012214210546FFF7E2FD90B99DF8073099
:102AB00003F01F031C4301220DF1070314212846D4
:102AC0008DF80740FFF7ECFD003018BF012003B080
:102AD00030BD0120FBE713B501220C460DF10703C1
:102AE0001421FFF7C4FD30B99DF8073023F01F0310
:102AF000237002B010BD0120FBE737B50C460DF185
:102B00000703012214210546FFF7B1FD90B99DF896
:102B1000073023F01F031C4301220DF1070314218A
:102B200028468DF80740FFF7BBFD003018BF012095
:102B300003B030BD0120FBE710B50B460C46012267
:102B40001421FFF794FD20B9237803F01F032370AD
:102B500010BD0120FCE713B501220C460DF107035F
:102B60002621FFF784FDA8B99DF80730DA09227104
:102B7000C3F3801203F03F03E27023701BB90123FB
:102B80006370002303E0202B6070FAD10123A3704F
:102B900002B010BD0120FBE713B50C4601A9FFF7F9
:102BA0000FFF01281EBF9DF805302370002002B0E2
:102BB00010BD13B50C4601A9FFF702FF01281EBF87
:102BC0009DF804302370002002B010BD07B502ABA1
:102BD00003F8012D0122FFF763FD431E58425841BF
:102BE00003B05DF804FBFFF7F1BF08B513460122FF
:102BF000FFF73DFD431E5842584108BDFFF7F5BFA2
:102C000038B5037904466BB183681B681D68E978A1
:102C100019B10020A870207138BDFFF783FD01288D
:102C2000F7D1F9E71846F7E738B583681B681C68E1
:102C3000637805461BB100202070E87038BDFFF7AF
:102C4000DFFF0128F7D1F9E738B5037904466BB106
:102C500083681B681D68A97819B10020E87020718D
:102C600038BDFFF75FFD0128F7D1F9E71846F7E710
:102C700038B583681B681C68237805461BB10020A3
:102C80006070E87038BDFFF7DFFF0128F7D1F9E782
:102C900013B50C460DF10701FFF763FD012815D0B0
:102CA0009DF80700202818D006D868B110280FD04A
:102CB0000D4B2360012009E0402810D0502810D08F
:102CC0003028F5D1094B05E00023236002B010BD88
:102CD0004FF07E5323600020F8E7054BFAE7054BE1
:102CE000F8E7054BF6E700BF000080BF0000C841D1
:102CF000000020410000484200009642FFF7C8BF94
:102D000013B502A9002301F8013D0446FFF7E1FCD9
:102D1000012805D020789DF80730C01A18BF01207F
:102D200002B010BDFFF7ECBF08B5FFF7E6FE431E8B
:102D30005842584108BD08B5FFF7FEFE431E5842F1
:102D4000584108BD13B50C460DF10701FFF7C3FE4E
:102D500001281EBF9DF807302370002002B010BD6F
:102D600013B50C466946FFF7F6FE01281EBF9DF815
:102D700000302370002002B010BD13B50C46694628
:102D8000FFF7E9FE01281EBF9DF8043023700020E4
:102D900002B010BD13B50C466946FFF7DCFE0128F2
:102DA0001EBF9DF803302370002002B010BD13B584
:102DB0000C466946FFF7CFFE01281EBF9DF8023082
:102DC0002370002002B010BD13B50C466946FFF712
:102DD000C2FE01281EBF9DF801302370002002B002
:102DE00010BD0000042811D8DFE800F003080A0C29
:102DF0000E004FF07E530B6000207047044BFAE743
:102E0000044BF8E7044BF6E7044BF4E70120704766
:102E1000000020410000C8410000484200009642E6
:102E2000F7EE007AB4EEE70AF1EE10FA38B5044690
:102E30000D4623D9F2EE047AB4EEE70AF1EE10FA69
:102E40001ED9F3EE097AB4EEE70AF1EE10FA19D9B9
:102E5000DFED0D7AB4EEE70AF1EE10FA94BF4021EF
:102E600050212046FFF75EFC012806D0291D204690
:102E7000FFF70EFF431E5842584138BD1021F0E7BE
:102E80002021EEE73021ECE70000484238B5037915
:102E9000012B04460CD083681B681D68294695EDFC
:102EA000010AFFF7BDFF012803D00123AB70237196
:102EB000002038BD08B5826803791268012B1168BB
:102EC00005D1FFF7ADFF431E5842584108BDF7EE4C
:102ED000007AB4EEE70AF1EE10FA18D9F2EE047AAD
:102EE000B4EEE70AF1EE10FA11D9F3EE097AB4EE76
:102EF000E70AF1EE10FA0AD9DFED077A9FED077ABB
:102F0000B4EEE70AF1EE10FA88BFF0EE477AC1EDB1
:102F1000017A0020DAE700BF000048420000964234
:102F200038B50379012B04460CD083681B681D68F3
:102F3000294695ED010AFFF773FF012803D001230D
:102F4000EB702371002038BD38B5044615460429BE
:102F50001AD8DFE801F017031113150020212046CD
:102F6000FFF7E0FB012806D0291D2046FFF790FE61
:102F7000431E5842584138BD3021F0E74021EEE76A
:102F80005021ECE71021EAE70120F4E710B5826850
:102F900003791268012B0C46126805D1FFF7D4FFA4
:102FA000431E5842584110BD111D2046FFF71AFF1D
:102FB000F6E710B5826803791268012B0C46126897
:102FC00005D1FFF7C1FF431E5842584110BD111DE6
:102FD0002046FFF707FFF6E738B504460D46FFF732
:102FE0008FFE012801D1012038BD144B2B60012137
:102FF0002046FFF778FB0128F5D000212046FFF797
:1030000091FB0128EFD000212046FFF7BCFB0128EF
:10301000E9D000212046FFF7D6FB0128E3D00221AA
:103020002046FFF7EFFB0128DDD000212046FFF707
:1030300047FC431E58425841D6E700BF0000C84134
:1030400038B583681B681C686378054623B1012383
:1030500023700020EB7038BD211DFFF7BDFF012854
:10306000F5D1F8E738B583681B681C6823780546F6
:1030700023B1012363700020EB7038BD211DFFF7E1
:10308000ABFF0128F5D1F8E72DE9F34102AC0025AB
:1030900044F8045D8846214607461646FFF7C6FCFD
:1030A00001281ED0DDED017ADFED0F6AADF8045086
:1030B000F8EEE77A214687EEA67A384688ED007A60
:1030C000FFF7D9FC01280CD0BDF9043007EE903A87
:1030D000F8EEE77AF2EE046A87EEA67A284686EDE5
:1030E000007A02B0BDE8F0810000C842012908B5AD
:1030F0000BD003D302290CD0012005E00021FFF7FB
:103100001FFC431E5842584108BD0021FFF738FC00
:10311000F7E70021FFF7F4FBF3E7012908B50BD02F
:1031200003D302290BD0012005E00121FFF708FCA1
:10313000431E5842584108BDFFF722FCF8E7012121
:10314000FFF7DEFBF4E7012908B505D8FFF798FB88
:10315000431E5842584108BD0120FCE7402908B5EC
:1031600003D008D809B120290BD1FFF795FC431EE5
:103170005842584108BD8029F7D0E029F5D0602990
:10318000F2E70120F6E7012908B505D8FFF758FB5B
:10319000431E5842584108BD0120FCE7FFF778BDA7
:1031A000FFF7AEBD08B5FFF794FA431E58425841E9
:1031B00008BD08B5FFF78DFA431E5842584108BDB7
:1031C000012908B505D8FFF75BFB431E584258415B
:1031D00008BD0120FCE7000037B50D4602A9002418
:1031E00041F8044DFFF722FC01280AD0DDED017AF9
:1031F000DFED056AF8EEE77A204687EEA67A85EDE0
:10320000007A03B030BD00BF0000C84237B50D469C
:1032100002A9002421F8024DFFF72DFC01280CD053
:10322000BDF9063007EE903AF8EEE77AF2EE046A5E
:1032300087EEA67A204685ED007A03B030BD000007
:1032400008B5826803791268012B116805D1FFF770
:10325000E7FD431E5842584108BDF7EE007AB4EE30
:10326000E70AF1EE10FA18D9F2EE047AB4EEE70AA2
:10327000F1EE10FA11D9F3EE097AB4EEE70AF1EEA5
:1032800010FA0AD9DFED077A9FED077AB4EEE70A64
:10329000F1EE10FA88BFF0EE477AC1ED017A002016
:1032A000DAE700BF0000484200009642012B08B553
:1032B00088BF41F0800104F0AFFBB0FA80F0400914
:1032C00008BD012B08B588BF41F0800104F0BCFBAC
:1032D000B0FA80F0400908BD08B50A4601230F2165
:1032E000FFF7EFFF003018BF012008BD37B50123FD
:1032F0000C460DF1070223210546FFF7E2FF80B1DE
:103300009DF8073003F07F031C430DF107020123F2
:10331000232128468DF80740FFF7C8FF003018BF6B
:10332000012003B030BD37B501230C460DF1070273
:1033300023210546FFF7C5FF80B19DF8073023F034
:1033400030031C430DF107020123232128468DF889
:103350000740FFF7ABFF003018BF012003B030BDBE
:1033600010B50A460C4601232321FFF7AAFF20B11E
:10337000237803F030032370012010BD70B506469A
:103380000D46282401232A4621463046FFF799FF9F
:1033900078B1611C0123EA18C9B23046FFF791FFEA
:1033A00038B10234E4B22E2C05F10205EAD1012035
:1033B00070BD0020FCE737B501230C460DF1070274
:1033C00020210546FFF77DFF80B19DF8073003F00F
:1033D0000F031C430DF107020123202128468DF81D
:1033E0000740FFF763FF003018BF012003B030BD76
:1033F00010B50A460C4601232021FFF762FF20B1D9
:10340000237823F00F032370012010BD37B501236B
:103410000C460DF1070220210546FFF752FF80B14F
:103420009DF8073023F001031C430DF1070201232F
:10343000202128468DF80740FFF738FF003018BFDD
:10344000012003B030BD10B50A460C4601232021EF
:10345000FFF737FF20B1237803F001032370012029
:1034600010BD37B501230C460DF10702202105469A
:10347000FFF727FF80B19DF8073023F002031C43BC
:103480000DF107020123202128468DF80740FFF7A0
:103490000DFF003018BF012003B030BD10B50A4643
:1034A0000C4601232021FFF70CFF20B1237803F005
:1034B00002032370012010BD37B501230C460DF126
:1034C000070220210546FFF7FCFE80B19DF807307A
:1034D00023F004031C430DF1070201232021284699
:1034E0008DF80740FFF7E2FE003018BF012003B05F
:1034F00030BD10B50A460C4601232021FFF7E1FE3E
:1035000020B1237803F004032370012010BD10B50F
:103510000A460C4601232021FFF7D3FE20B1237871
:1035200003F008032370012010BD37B501230C46BA
:103530000DF1070221210546FFF7C3FE80B19DF87A
:10354000073023F008031C430DF10702012321215A
:1035500028468DF80740FFF7A9FE003018BF01206C
:1035600003B030BD37B501230C460DF10702212110
:103570000546FFF7A6FE80B19DF8073023F0300323
:103580001C430DF107020123212128468DF8074035
:10359000FFF78CFE003018BF012003B030BD37B5F7
:1035A00001230C460DF1070221210546FFF789FE94
:1035B00080B19DF8073003F03F031C430DF1070273
:1035C0000123212128468DF80740FFF76FFE0030C8
:1035D00018BF012003B030BD10B50A460C460123C8
:1035E0002321FFF76EFE20B1237803F00803237038
:1035F000012010BD2DE9F04385B080460E460DF147
:103600000601FFF7E9FF0DF105014046FFF77FFFD7
:103610009DF80500082805D19DF80630002B6CD0D8
:10362000002067E00028FBD19DF80630002B67D012
:10363000082B5FD1042704460DF107014046FFF730
:103640008FFE9DF80750202D5DD0302D5DD0A5F167
:1036500010035D425D4102A94046FFF78FFE2C4BEF
:1036600005EB840003EBC00253F83050BDF90800AD
:10367000546838414FEAE07900FB04F305FB093355
:10368000A0FB058918F5FA70994449F100014FF43F
:103690007A720023FDF7B2FA3060BDF90A003841B2
:1036A0004FEAE07900FB04F305FB0933A0FB058931
:1036B00018F5FA7099444FF47A724FF0000349F10B
:1036C0000001FDF79BFA7060BDF90C003841C3178B
:1036D000444305FB0344A0FB057817F5FA70A044AA
:1036E0004FF47A724FF0000348F10001FDF786FABB
:1036F000B060012005B0BDE8F083074602249BE7D7
:103700000627012498E70225A5E70325A3E700BFC4
:10371000584A010810B50A460C4601232721FFF735
:10372000D0FD20B1237803F001032370012010BDE8
:1037300037B501230C460DF107022E210546FFF790
:10374000C0FD80B19DF8073003F03F031C430DF12D
:10375000070201232E2128468DF80740FFF7A6FD1A
:10376000003018BF012003B030BD012A08B5134650
:1037700008D10A4602232821FFF7A3FD003018BF15
:10378000012008BD022A02D10A462A21F4E7042AB0
:1037900003D10A4602232C21EEE70120F1E7F7B519
:1037A00002AD002305F8013D0E4601232A462021E3
:1037B0000746FFF786FD10B9002003B0F0BD0123D6
:1037C0002A46232138469DF80740FFF77AFD002856
:1037D000F2D09DF80730A410C3F3C00304F0020434
:1037E000234333700120E8E737B501230C460DF180
:1037F000070220210546FFF764FD10B9002003B041
:1038000030BD9DF80720A30022F0080203F0080352
:1038100013438DF807300DF10702012320212846BC
:10382000FFF744FD0028E9D001230DF10702232111
:103830002846FFF746FD0028E0D09DF80730E40059
:1038400023F0080304F008041C430DF107020123D0
:10385000232128468DF80740FFF728FD003018BFC8
:103860000120CCE707B504294FF001030DF1070251
:1038700008D12D21FFF725FD003018BF012003B02E
:103880005DF804FB02290CBF2B212921F2E737B593
:1038900001230C460DF1070220210546FFF711FD1B
:1038A00080B19DF8073023F007031C430DF1070298
:1038B0000123202128468DF80740FFF7F7FC003050
:1038C00018BF012003B030BD10B50A460C460123D5
:1038D0002021FFF7F6FC20B1237803F007032370C3
:1038E000012010BD37B501230C460DF1070222213E
:1038F0000546FFF7E6FC80B19DF8073023F0100382
:103900001C430DF107020123222128468DF80740B0
:10391000FFF7CCFC003018BF012003B030BD08B564
:1039200011B1012906D11021FFF7DCFFB0FA80F0B8
:10393000400908BD0120FCE708B5032910D8DFE8DD
:1039400001F00D02090B0221FFF78CFFB0FA80F0A5
:10395000400908BD0421F7E70721F5E70121F3E756
:103960000120F6E708B50021FFF7DFFDB0FA80F08F
:10397000400908BD08B5032910D8DFE801F00D02A1
:10398000090B0221FFF783FFB0FA80F0400908BD60
:103990000421F7E70721F5E70121F3E70120F6E726
:1039A00013B50C460DF10701FFF78EFFB0B19DF87E
:1039B0000730013B062B11D8DFE803F00408100C98
:1039C00010100E000020207002B010BD01232370E3
:1039D0000020F9E70223FAE70323F8E70120F3E7E1
:1039E000012908B505D003D3022902D0012005E042
:1039F0000021FFF7F9FEB0FA80F0400908BD13B5C9
:103A00000C460DF10701FFF7CAFE30B19DF80730F3
:103A1000012B08D003D3022B05D0012001E00020A8
:103A2000207002B010BD23700020FAE713B5002308
:103A30000C46ADF80430032A18D8DFE802F015026E
:103A40001113022201A9FFF790FE78B19DF805201D
:103A50009DF8043003EB02232380002002B010BD48
:103A60000422EFE70722EDE70122EBE70120F5E76B
:103A700013B50C460DF10701FFF74CFE50B19DF850
:103A8000070028B1012805D12070002002B010BD28
:103A90002070FBE70120F9E713B502AC012304F81D
:103AA000012D2246FFF702FCB0FA80F0400902B077
:103AB00010BD08B50123FFF704FCB0FA80F04009FF
:103AC00008BD37B50C460DF105010546FFF7BBFCF7
:103AD00010B9012003B030BD0DF106012846FFF7F3
:103AE000DDFC0028F5D00DF107012846FFF701FDA8
:103AF0000028EED09DF805305A1E534253412370E2
:103B00009DF80630991E4B424B4163709DF807307B
:103B1000181F43424341A3700020DBE7F0EE007A18
:103B2000B4EEE70AF1EE10FA08B515D9F1EE007A15
:103B3000B4EEE70AF1EE10FA10D9F2EE007AB4EE24
:103B4000E70AF1EE10FA94BF20213021FFF7EBFBDA
:103B5000B0FA80F0400908BD0021F7E71021F5E731
:103B6000022908B508D0042908D049B9FFF7DBFBC2
:103B7000B0FA80F0400908BD1021F7E72021F5E7F1
:103B80000120F8E713B50C460DF10701FFF7E8FB3C
:103B900038B19DF80700102811D004D850B10C4B53
:103BA0002360012009E020280ED03028F7D14FF003
:103BB000834306E04FF08043236002B010BD4FF016
:103BC000814323600020F8E74FF08243F9E700BF0C
:103BD000000080BFF7EE007AB4EEE70AF1EE10FACB
:103BE00008B52AD9F2EE047AB4EEE70AF1EE10FA3B
:103BF00025D9F3EE097AB4EEE70AF1EE10FA20D9EE
:103C0000DFED137AB4EEE70AF1EE10FA1BD9DFED1F
:103C1000117AB4EEE70AF1EE10FA16D9DFED0E7A5A
:103C2000B4EEE70AF1EE10FA94BF60217021FFF7BD
:103C3000C2FBB0FA80F0400908BD1021F7E720214F
:103C4000F5E73021F3E74021F1E75021EFE700BF2E
:103C5000000048420000C8420000484338B50379DC
:103C6000012B044610D083681D682979FFF7BCFD3D
:103C700008B9012038BD95ED000A2046FFF7AAFFDC
:103C80000128F6D0012323710020F3E713B50C4679
:103C90000DF10701FFF7ACFBA0B19DF8070030283C
:103CA0001FD008D8102815D0202818D040B90023DC
:103CB000236002B010BD502817D005D8402812D07C
:103CC0000C4B23600120F4E7602810D07028F7D156
:103CD000094B01E04FF07E5323600020E9E7074BDA
:103CE000FAE7074BF8E7074BF6E7074BF4E7074B14
:103CF000F2E700BF000080BF0000C8430000204181
:103D00000000C841000048420000C842000048438B
:103D1000F7B50D460DF105010746FFF7F8FB08B9A9
:103D2000012025E00DF106013846FFF755FC00287B
:103D3000F6D09DF805401CBB9DF80660002E3FD1D3
:103D40000DF107013846FFF70BFB0028E8D09DF87E
:103D5000070010280ED003D840B1274B2B60DFE7B7
:103D600020280BD03028F8D1244B04E0244B2B60C2
:103D700003B0F0BD234B2B600020F9E7224BFAE79C
:103D8000082CCDD19DF80640002CC9D10DF10701BA
:103D90003846FFF7E5FA0028C2D09DF80700102842
:103DA0000AD003D80028D8D1174BE0E7202805D047
:103DB0003028D2D1154BDEE7154BDCE7154BDAE79F
:103DC000082EADD10DF107013846FFF7C9FA0028DA
:103DD000A6D09DF8070010280AD003D80028BCD12F
:103DE0000D4BC4E7202805D03028B6D10B4BC2E7D5
:103DF0000B4BC0E7024BBEE7000080BF9A993B42E5
:103E00009A997940713DFA407B147A417B943B4307
:103E10007B14FA417B147A4248E17A3F1F853B418B
:103E20009A99F93F7FB50D460DF107010646FFF758
:103E3000D3FB10B9012004B070BD0DF1060130466E
:103E4000FFF765FB0028F5D09DF80640082C18D137
:103E50009DF80730002BEDD102A93046FFF78EFA0E
:103E60000028E7D0BDF90810BDF90A20BDF90C30D3
:103E70002141224143FA04F429806A80AC80002069
:103E8000D9E7002CD6D19DF807301BB1082BD1D132
:103E90000424E1E70624DFE71FB50C4601A9FFF77C
:103EA000A9FB40B1019B2360029B6360039BA3605D
:103EB000002004B010BD0120FBE708B5FFF70CFAA5
:103EC000B0FA80F0400908BD13B502A9002301F83B
:103ED000013D0446FFF7F1FF012805D020789DF849
:103EE0000730C01A18BF012002B010BD38B5054612
:103EF000032915D8DFE801F00D02090B4021032A40
:103F00000ED8DFE802F013080F118021F7E7C02177
:103F1000F5E70021F3E710242846FFF740FB38B906
:103F2000012012E02024F7E73024F5E70024F3E72E
:103F300021462846FFF716FB0028F1D00821284625
:103F4000FFF7F3FAB0FA80F0400938BD38B50C46F7
:103F500009784B1E594259410546FFF757FA08B9EF
:103F6000012038BD6378012B0CBF022100212846B7
:103F7000FFF777FA0028F3D0A378012B0CBF0421B8
:103F800000212846FFF798FAB0FA80F04009E8E7E8
:103F900073B51E4B1A889B788DF806308368ADF890
:103FA000042004461E68FFF78FFF012802D101207C
:103FB00002B070BD80212046FFF798F90028F6D0A6
:103FC00000212046FFF7B4FB0028F0D0104B3360EF
:103FD00000212046FFF7EFF90028E8D000253571D1
:103FE00029462046FFF700FC0028E0D0294620465D
:103FF000FFF7B6FD0128DAD001A92046FFF7A6FF9A
:104000000128D4D00123E3702846D1E7B84A01083B
:104010000000C84208B50279012A05D1FFF7DAFD90
:10402000431E5842584108BDF7EE007A8368B4EE4B
:10403000E70AF1EE10FA1B6826D9F2EE047AB4EE24
:10404000E70AF1EE10FA1FD9F3EE097AB4EEE70AA7
:10405000F1EE10FA18D9DFED0E7AB4EEE70AF1EEC0
:1040600010FA11D9DFED0B7AB4EEE70AF1EE10FA8F
:104070000AD9DFED097A9FED097AB4EEE70AF1EE8D
:1040800010FA88BFF0EE477AC3ED007A0020CAE745
:10409000000048420000C842000048430000C843F6
:1040A00008B50379012B15D1042929D8DFE801F0DF
:1040B00010030A0C0E002021FFF77DF9B0FA80F002
:1040C000400908BD3021F7E74021F5E75021F3E72B
:1040D0001021F1E783681B68042911D8DFE801F09B
:1040E00003080A0C0E004FF07E521A600020E8E729
:1040F000044AFAE7044AF8E7044AF6E7044AF4E710
:104100000120DEE7000020410000C84100004842D5
:104110000000C84238B503790446BBB183681D6806
:104120002946FFF7B3FD012801D1012038BD291D23
:104130002046FFF734FB0028F7D000212046FFF788
:104140003AF90028F1D000202071EFE71846EDE79A
:1041500038B5836804461D68FFF7B6FE012801D113
:10416000012038BD2046FFF7D5FF0128F8D00020F8
:1041700000232B602871E070F3E7012B08B588BF9E
:1041800041F0800103F048FCB0FA80F0400908BD1E
:10419000012B08B588BF41F0800103F055FCB0FA4F
:1041A00080F0400908BD08B50A4601234F21FFF7FA
:1041B000EFFF003018BF012008BD37B501230C46C2
:1041C0000DF1070262210546FFF7E2FF80B19DF87D
:1041D000073023F010031C430DF107020123622175
:1041E00028468DF80740FFF7C8FF003018BF0120B0
:1041F00003B030BD37B501230C460DF10702602135
:104200000546FFF7C5FF80B19DF8073023F0030393
:104210001C430DF107020123602128468DF8074059
:10422000FFF7ABFF003018BF012003B030BD70B501
:1042300006460D46682401232A4621463046FFF7EC
:10424000A7FF78B1611C0123EA18C9B23046FFF715
:104250009FFF38B10234E4B26E2C05F10205EAD1B9
:10426000012070BD0020FCE737B501230C460DF19D
:10427000070260210546FFF78BFF80B19DF80730EC
:1042800023F00C031C430DF1070201236021284693
:104290008DF80740FFF771FF003018BF012003B011
:1042A00030BD10B50A460C4601236021FFF770FFB0
:1042B00020B1237803F00C032370012010BD37B523
:1042C00001230C460DF1070262210546FFF760FF4E
:1042D00080B19DF8073023F002031C430DF1070263
:1042E0000123622128468DF80740FFF746FF003082
:1042F00018BF012003B030BD10B50A460C4601239B
:104300006721FFF745FF20B1237803F008032370EE
:10431000012010BD4FF07F530B600020704700005C
:10432000014B0B600020704700004842002070479E
:104330000020704713B50C460DF10701FFF7DCFFB5
:1043400060B19DF8070038B108284FF0010001D195
:104350002070002002B010BD2070FBE70120F9E7BB
:1043600013B502AC012304F8012D2246FFF705FF27
:10437000B0FA80F0400902B010BD08B50123FFF784
:1043800007FFB0FA80F0400908BD0000F2EE047AA1
:10439000B4EEE70AF1EE10FA08B515D9F3EE047A97
:1043A000B4EEE70AF1EE10FA10D9DFED097AB4EEB7
:1043B000E70AF1EE10FA94BF08210C21FFF754FF31
:1043C000B0FA80F0400908BD0021F7E70421F5E7C5
:1043D0000000484208B5042911D8DFE801F00E03B7
:1043E0000A0C0C000421FFF73FFFB0FA80F04009EF
:1043F00008BD0821F7E70C21F5E70021F3E70120CC
:10440000F6E7000013B50C460DF10701FFF749FF71
:10441000C8B19DF807300C2B13D8DFE803F0071262
:1044200012120C1212120E1212121000074B2360FD
:10443000002002B010BD064BF9E7064BF7E7064B2C
:10444000F5E7064B23600120F3E700BF00002041A1
:104450000000A041000048420000C842000080BFA8
:1044600037B500240D4669460094ADF80440FFF7C7
:10447000DEFE58B1BDF800302B80BDF802306B80F5
:10448000BDF80430AB80204603B030BD0120FBE70F
:1044900013B50C466946FFF7E3FF012809D0BDF8C4
:1044A00000302380BDF802306380BDF80430A38063
:1044B000002002B010BD13B50C466946FFF7D0FFCF
:1044C000012826D0BDF9003007EE103AB8EEC77AC1
:1044D000F7EE086A27EE267ABDF90230BDEEC77AFC
:1044E000002084ED007A07EE103ABDF9043007EEA3
:1044F000903AB8EEC77AF8EEE77A27EE267A67EEBA
:10450000A67ABDEEC77AFDEEE77A84ED017AC4EDB6
:10451000027A02B010BD08B5FFF745FEB0FA80F090
:10452000400908BD13B502A9002301F8013D044666
:10453000FFF7F1FF012805D020789DF80730C01A59
:1045400018BF012002B010BD10B50379044633B185
:104550000221FFF74FFE20B10020207110BD184648
:10456000FCE70120FAE710B50446FFF7DBFF01285E
:1045700001D1012010BD2046FFF7E6FF0128F8D049
:104580000020E070F6E710B50379012B044605D052
:104590000021FFF72FFE012310B12371002010BD71
:1045A0001846FCE710B50446FFF7BCFF012801D10F
:1045B000012010BD02212046FFF71CFE0028F7D085
:1045C00010212046FFF7F9FD0028F1D004212046F4
:1045D000FFF700FF0128EBD000212046FFF76FFE18
:1045E0000028E5D00123E3700020E2E708B503F0DE
:1045F0002BFAB0FA80F0400908BD08B503F00CFAB8
:10460000B0FA80F0400908BD08B50A4601230F2121
:10461000FFF7ECFF003018BF012008BD37B50123BC
:104620000C460DF1070212210546FFF7DFFF80B1AE
:104630009DF8073023F040031C430DF107020123CE
:10464000122128468DF80740FFF7D7FF003018BF2A
:10465000012003B030BD37B501230C460DF1070230
:1046600010210546FFF7C2FF80B19DF8073023F007
:104670000C031C430DF107020123102128468DF87D
:104680000740FFF7BAFF003018BF012003B030BD6C
:1046900010B50A460C4601231021FFF7A7FF20B1F1
:1046A000237803F00C032370012010BD70B506467B
:1046B0000D46282401232A4621463046FFF796FF5F
:1046C00078B1611C0123EA18C9B23046FFF78EFFAA
:1046D00038B10234E4B22E2C05F10205EAD10120F2
:1046E00070BD0020FCE737B501230C460DF1070231
:1046F00010210546FFF77AFF80B19DF8073003F0DF
:104700000F031C430DF107020123102128468DF8E9
:104710000740FFF772FF003018BF012003B030BD23
:1047200010B50A460C4601231021FFF75FFF20B1A8
:10473000237823F00F032370012010BD37B5012328
:104740000C460DF1070211210546FFF74FFF80B11E
:104750009DF8073023F00C031C430DF107020123E1
:10476000112128468DF80740FFF747FF003018BF9A
:10477000012003B030BD10B50A460C4601231121BB
:10478000FFF734FF20B1237803F00C0323700120DE
:1047900010BD70B506460D46222401232A46214647
:1047A0003046FFF723FF78B1611C0123EA18C9B234
:1047B0003046FFF71BFF38B10234E4B2282C05F174
:1047C0000205EAD1012070BD0020FCE737B50123C6
:1047D0000C460DF1070211210546FFF707FF80B1D6
:1047E0009DF8073003F00F031C430DF1070201236E
:1047F000112128468DF80740FFF7FFFE003018BF53
:10480000012003B030BD10B50A460C46012311212A
:10481000FFF7ECFE20B1237823F00F032370012073
:1048200010BD37B501230C460DF1070211210546D5
:10483000FFF7DCFE80B19DF8073023F002031C4334
:104840000DF107020123112128468DF80740FFF7DB
:10485000D4FE003018BF012003B030BD10B50A46A9
:104860000C4601231121FFF7C1FE20B1237803F08C
:1048700002032370012010BD37B501230C460DF152
:10488000070219460546FFF7B1FE80B19DF80730D3
:1048900003F07F031C4301230DF10702194628464C
:1048A0008DF80740FFF7A9FE003018BF012003B0C4
:1048B00030BD37B501230C460DF107020621054630
:1048C000FFF794FE10B9002003B030BD01230DF1B5
:1048D0000702062128468DF80740FFF78EFE0028C4
:1048E000F1D001230DF1070207212846FFF77EFED4
:1048F0000028E8D09DF80710C4F3022421F0070136
:1049000021438DF8071001230DF1070207212846E6
:10491000FFF773FE003018BF0120D5E737B501233C
:104920000C460DF1070208210546FFF75FFE80B136
:104930009DF8073023F007031C430DF10702012304
:10494000082128468DF80740FFF757FE003018BFB2
:10495000012003B030BD37B501230C460DF107022D
:1049600008210546FFF742FE80B19DF8073023F08D
:1049700038031C430DF107020123082128468DF856
:104980000740FFF73AFE003018BF012003B030BDEA
:1049900037B501230C460DF1070209210546FFF743
:1049A00025FE80B19DF8073003F07F031C430DF115
:1049B00007020123092128468DF80740FFF71DFE55
:1049C000003018BF012003B030BD37B501230C46BD
:1049D0000DF107020A210546FFF708FE80B19DF898
:1049E000073023F007031C430DF1070201230A21BE
:1049F00028468DF80740FFF700FE003018BF012061
:104A000003B030BD37B501230C460DF107020A2172
:104A10000546FFF7EBFD80B19DF8073023F07803E2
:104A20001C430DF1070201230A2128468DF8074097
:104A3000FFF7E3FD003018BF012003B030BD37B5EC
:104A400001230C460DF107020D210546FFF7CEFDAF
:104A500080B19DF8073023F020031C430DF10702BD
:104A600001230D2128468DF80740FFF7C6FD0030D1
:104A700018BF012003B030BD37B501230C460DF13E
:104A800007020D210546FFF7B1FD80B19DF8073003
:104A900003F07F031C430DF1070201230D2128467B
:104AA0008DF80740FFF7A9FD003018BF012003B0C3
:104AB00030BD37B501230C460DF107021221054622
:104AC000FFF794FD80B19DF8073023F004031C43E9
:104AD0000DF107020123122128468DF80740FFF748
:104AE0008CFD003018BF012003B030BD37B5012365
:104AF0000C460DF1070214210546FFF777FD80B142
:104B00009DF8073023F003031C430DF10702012336
:104B1000142128468DF80740FFF76FFD003018BFBD
:104B2000012003B030BD37B501230C460DF107025B
:104B300014210546FFF75AFD80B19DF8073023F098
:104B40000C031C430DF107020123142128468DF8A4
:104B50000740FFF752FD003018BF012003B030BD01
:104B600037B501230C460DF1070219210546FFF761
:104B70003DFD80B19DF8073023F002031C430DF189
:104B800007020123192128468DF80740FFF735FD5C
:104B9000003018BF012003B030BD37B501230C46EB
:104BA0000DF1070219210546FFF720FD80B19DF8A0
:104BB000073023F008031C430DF1070201231921DC
:104BC00028468DF80740FFF718FD003018BF012078
:104BD00003B030BD37B501230C460DF10702192192
:104BE0000546FFF703FD80B19DF8073023F0100361
:104BF0001C430DF107020123192128468DF80740B7
:104C0000FFF7FBFC003018BF012003B030BD37B503
:104C100001230C460DF1070219210546FFF7E6FCBA
:104C200080B19DF8073023F004031C430DF1070207
:104C30000123192128468DF80740FFF7DEFC0030DC
:104C400018BF012003B030BD10B50A460C46012341
:104C50001B21FFF7CBFC20B1237803F0080323705E
:104C6000012010BD10B50A460C4601231B21FFF799
:104C7000BDFC20B1237803F020032370012010BD78
:104C800010B50A460C4601231C21FFF7AFFC20B1EA
:104C9000237803F010032370012010BD10B50A46DD
:104CA0000C4601231C21FFF7A1FC20B1237803F05F
:104CB00020032370012010BD10B50A460C460123C5
:104CC0001D21FFF793FC20B1237803F0010323702B
:104CD000012010BD10B50A460C4601231D21FFF727
:104CE00085FC20B1237803F002032370012010BD5E
:104CF00010B50A460C4601231D21FFF777FC20B1B1
:104D0000237803F004032370012010BD10B50A4678
:104D10000C4601231D21FFF769FC20B1237803F025
:104D200008032370012010BD10B50A460C4601236C
:104D30001D21FFF75BFC20B1237803F010032370E3
:104D4000012010BD10B50A460C4601231D21FFF7B6
:104D50004DFC20B1237803F020032370012010BD07
:104D600010B50A460C4601231D21FFF73FFC20B178
:104D7000237803F040032370012010BD10B50A46CC
:104D80000C4601231E21FFF731FC20B1237803F0EC
:104D900001032370012010BD10B50A460C46012303
:104DA0001E21FFF723FC20B1237803F002032370B8
:104DB000012010BD37B501230C460DF107023A2141
:104DC0000546FFF713FC10B9002003B030BD0123E6
:104DD0000DF106023B212846FFF708FC0028F3D01E
:104DE0009DF8063003F00F029DF8073043EA0223D6
:104DF00023800120E9E710B50A460C4601233B2138
:104E0000FFF7F4FB20B1237803F010032370012097
:104E100010BD10B50A460C4601233B21FFF7E6FB07
:104E200020B1237803F020032370012010BD10B5BA
:104E30000A460C4601233B21FFF7D8FB20B123781B
:104E400003F040032370012010BD37B501230C4649
:104E50000DF107023C210546FFF7C8FB10B9002001
:104E600003B030BD01230DF106023D212846FFF7B6
:104E7000BDFB0028F3D09DF8063003F003029DF837
:104E8000073043EA022323800120E9E710B50A46F0
:104E90000C4601235321FFF7A9FB20B1237803F02F
:104EA00010032370012010BD10B50A460C460123E3
:104EB0005321FFF79BFB20B1237803F020032370DD
:104EC000012010BD37B501230C460DF10702582112
:104ED0000546FFF78BFB80B19DF8073023F00103F7
:104EE0001C430DF107020123582128468DF8074085
:104EF000FFF783FB003018BF012003B030BD37B58A
:104F000001230C460DF1070258210546FFF76EFB01
:104F100080B19DF8073023F002031C430DF1070216
:104F20000123582128468DF80740FFF766FB003023
:104F300018BF012003B030BD37B501230C460DF179
:104F4000070258210546FFF751FB80B19DF8073055
:104F500023F004031C430DF10702012358212846C6
:104F60008DF80740FFF749FB003018BF012003B060
:104F700030BD37B501230C460DF107025821054617
:104F8000FFF734FB80B19DF8073023F008031C4382
:104F90000DF107020123582128468DF80740FFF73D
:104FA0002CFB003018BF012003B030BD37B5012302
:104FB0000C460DF1070258210546FFF717FB80B19B
:104FC0009DF8073003F07F031C430DF10702012316
:104FD000582128468DF80740FFF70FFB003018BF17
:104FE000012003B030BD37B501230C460DF1070297
:104FF00059210546FFF7FAFA90B19DF8071004F021
:105000001F0421F01F0121438DF8071001230DF12A
:10501000070259212846FFF7F0FA003018BF012097
:1050200003B030BD37B501230C460DF107025921FD
:105030000546FFF7DBFA80B19DF8073023F06003E7
:105040001C430DF107020123592128468DF8074022
:10505000FFF7D3FA003018BF012003B030BD37B5D9
:1050600001230C460DF107025A210546FFF7BEFA4F
:1050700090B19DF8071004F0030421F003012143CF
:105080008DF8071001230DF107025A212846FFF77A
:10509000B4FA003018BF012003B030BD37B501238A
:1050A0000C460DF107025A210546FFF79FFA98B109
:1050B0009DF80710A40021F00C0104F00C0421431A
:1050C0008DF8071001230DF107025A212846FFF73A
:1050D00094FA003018BF012003B030BD37B501236A
:1050E0000D460DF107025A210446FFF77FFA88B1F9
:1050F0009DF8071001F00F0141EA05118DF8071026
:1051000001230DF107025A212046FFF776FA0030FD
:1051100018BF012003B030BD37B501230C460DF197
:1051200007025B210546FFF761FA90B19DF8071071
:1051300004F03F0421F03F0121438DF807100123C3
:105140000DF107025B212846FFF757FA003018BF20
:10515000012003B030BD37B501230C460DF1070225
:105160005B210546FFF742FA80B19DF8073003F056
:105170007F031C430DF1070201235B2128468DF8B4
:105180000740FFF73AFA003018BF012003B030BDE6
:1051900037B501230C460DF107025C210546FFF7E8
:1051A00025FA90B19DF8071004F00F0421F00F01CB
:1051B00021438DF8071001230DF107025C212846D9
:1051C000FFF71BFA003018BF012003B030BD37B520
:1051D00001230C460DF107025C210546FFF706FA94
:1051E00080B19DF8073023F010031C430DF1070236
:1051F00001235C2128468DF80740FFF7FEF90030B7
:1052000018BF012003B030BD37B501230C460DF1A6
:1052100007025C210546FFF7E9F998B19DF80710F0
:10522000640121F0600104F0600421438DF807104F
:1052300001230DF107025C212846FFF7DEF900305B
:1052400018BF012003B030BD37B501230C460DF166
:1052500007025D210546FFF7C9F980B19DF80730C7
:1052600023F007031C430DF1070201235D212846AB
:105270008DF80740FFF7C1F9003018BF012003B0D7
:1052800030BD37B501230C460DF107025D210546FF
:10529000FFF7ACF910B9002003B030BD9DF807301E
:1052A00003F0070343EAC4038DF807300DF107024A
:1052B00001235D212846FFF7A0F90028EBD0012348
:1052C0000DF107025C212846FFF790F90028E2D093
:1052D0009DF80710640901F07F0141EAC4118DF8BF
:1052E000071001230DF107025C212846FFF785F91D
:1052F000003018BF0120CFE737B501230C460DF170
:1053000007025E210546FFF771F980B19DF807306D
:1053100023F002031C430DF1070201235E212846FE
:105320008DF80740FFF769F9003018BF012003B07E
:1053300030BD37B501230C460DF107025E2105464D
:10534000FFF754F980B19DF8073023F004031C43A4
:105350000DF1070201235E2128468DF80740FFF773
:105360004CF9003018BF012003B030BD37B5012320
:105370000C460DF107025E210546FFF737F980B1B3
:105380009DF8073023F008031C430DF107020123A9
:105390005E2128468DF80740FFF72FF9003018BF2F
:1053A000012003B030BD37B501230C460DF10702D3
:1053B0005E210546FFF71AF980B19DF8073023F00A
:1053C00010031C430DF1070201235E2128468DF8CE
:1053D0000740FFF712F9003018BF012003B030BDBD
:1053E00037B501230C460DF107025E210546FFF794
:1053F000FDF880B19DF8073023F020031C430DF128
:10540000070201235E2128468DF80740FFF7F5F8D3
:10541000003018BF012003B030BD37B501230C4662
:105420000DF107025E210546FFF7E0F880B19DF817
:10543000073023F040031C430DF1070201235E21D6
:1054400028468DF80740FFF7D8F8003018BF012034
:1054500003B030BD38B50A460C4601233E2105464F
:10546000FFF7C4F840B10123E2183F212846FFF7B7
:10547000BDF8003018BF012038BD38B50A460C46CB
:1054800001234B210546FFF7B1F840B10123E21893
:105490004C212846FFF7AAF8003018BF012038BD7C
:1054A00037B504460D468021FFF7E6F90DF10702F6
:1054B00001230F212046FFF799F89DF8071005F00A
:1054C0001F0521F01F0129438DF8071001230DF15D
:1054D00007020F212046FFF790F800212046FFF732
:1054E000CBF9012003B030BD08B5FFF7E2F9B0FAFF
:1054F00080F0400908BD000013B50C460DF107010E
:10550000FFF7C6F8C8B19DF807300C2B13D8DFE8B9
:1055100003F007121212101212120C1212120E00C5
:10552000074B2360002002B010BD064BF9E7064B85
:10553000F7E7064BF5E7064B23600120F3E700BFD2
:1055400023DB793D23DBF93D23DB793E23DBF93E89
:10555000000080BF13B50C460DF10701FFF798F866
:10556000E8B19DF807300C2B17D8DFE803F00716D9
:105570001616131616160D16161610004FF0804349
:105580002360002002B010BD4FF08143F8E74FF0D8
:105590008243F5E74FF08343F2E7024B236001209B
:1055A000F0E700BF000080BF08B5FFF703FCB0FACA
:1055B00080F0400908BD08B5FFF74CFFB0FA80F055
:1055C000400908BDF7B500230D466946074601931B
:1055D000FFF7F1FF012802D1012003B0F0BD01A9BE
:1055E00038469DF801609DF80040FFF785FF0128CF
:1055F000F2D044EA062424B207EE904A9DED017AE7
:10560000F8EEE77A002067EE877AFDEEE77AC5EDDF
:10561000007AE2E708B5FFF718FCB0FA80F040091D
:1056200008BD13B50C460DF10701FFF700FC68B18A
:105630009DF8070028B140284FF0010003D002B0C8
:1056400010BD2070FBE720700020F8E70120F6E78E
:1056500013B50C460DF10701FFF7CDFB68B19DF8BE
:10566000070028B110284FF0010003D002B010BD90
:105670002070FBE720700020F8E70120F6E713B563
:105680000C460DF10701FFF7C4FB68B19DF8070058
:1056900028B120284FF0010003D002B010BD2070C7
:1056A000FBE720700020F8E70120F6E7F2EE047A2D
:1056B000B4EEE70AF1EE10FA08B53FD9F3EE097A35
:1056C000B4EEE70AF1EE10FA3AD9DFED247AB4EE3F
:1056D000E70AF1EE10FA35D9DFED217AB4EEE70AE8
:1056E000F1EE10FA30D9DFED1F7AB4EEE70AF1EEF1
:1056F00010FA2BD9DFED1C7AB4EEE70AF1EE10FABE
:1057000026D9DFED1A7AB4EEE70AF1EE10FA21D9C4
:10571000DFED177AB4EEE70AF1EE10FA1CD9DFEDEF
:10572000157AB4EEE70AF1EE10FA94BF4821502141
:10573000FFF768F9B0FA80F0400908BD0821F7E7E3
:105740001021F5E71821F3E72021F1E72821EFE701
:105750003021EDE73821EBE74021E9E7000048423E
:105760000000C842000048430000C843000048440D
:105770000000C84400404E4513B50C460DF107012A
:10578000FFF7E0FA60B19DF8070038B120284FF02C
:10579000010001D12070002002B010BD2070FBE795
:1057A0000120F9E713B50C460DF10701FFF7BCFA2C
:1057B00060B19DF8070038B110284FF0010001D109
:1057C0002070002002B010BD2070FBE70120F9E737
:1057D00013B50C460DF10701FFF798FA60B19DF87B
:1057E000070038B108284FF0010001D120700020D7
:1057F00002B010BD2070FBE70120F9E713B50C469D
:105800000DF10701FFF774FA60B19DF8070038B198
:1058100004284FF0010001D12070002002B010BD1B
:105820002070FBE70120F9E713B50C460DF10701E5
:10583000FFF750FA60B19DF8070038B102284FF029
:10584000010001D12070002002B010BD2070FBE7E4
:105850000120F9E713B50C460DF10701FFF72CFA0B
:1058600050B19DF8070028B1012805D12070002013
:1058700002B010BD2070FBE70120F9E713B50C461C
:105880000DF10701FFF76CFA60B19DF8070038B120
:1058900040284FF0010001D12070002002B010BD5F
:1058A0002070FBE70120F9E7F0EE007AB4EEE70A9A
:1058B000F1EE10FA08B515D9F1EE007AB4EEE70A68
:1058C000F1EE10FA10D9F2EE007AB4EEE70AF1EE3A
:1058D00010FA94BF0C210421FEF7BDFEB0FA80F04F
:1058E000400908BD0021F7E70821F5E7022908B5BE
:1058F00008D0042908D049B9FEF7ADFEB0FA80F00F
:10590000400908BD0821F7E70C21F5E70120F8E779
:10591000F2EE0A7AB4EEE70AF1EE10FA08B53FD9D2
:10592000F3EE0A7AB4EEE70AF1EE10FA3AD9DFEDB7
:10593000247AB4EEE70AF1EE10FA35D9DFED217AD8
:10594000B4EEE70AF1EE10FA30D9DFED1F7AB4EECB
:10595000E70AF1EE10FA2BD9DFED1C7AB4EEE70A74
:10596000F1EE10FA26D9DFED1A7AB4EEE70AF1EE7D
:1059700010FA21D9DFED177AB4EEE70AF1EE10FA4A
:105980001CD9DFED157AB4EEE70AF1EE10FA94BFF8
:105990009021A021FEF7A7FEB0FA80F0400908BDD3
:1059A0001021F7E72021F5E73021F3E74021F1E767
:1059B0005021EFE76021EDE77021EBE78021E9E777
:1059C000000050420000D042000050430000D0438D
:1059D000004050440080CF440020504510B503796A
:1059E000012B044609D083681B6893ED010AFFF779
:1059F0008FFF012802D001232371002010BD08B5BC
:105A0000FFF76CFBB0FA80F0400908BD08B5FFF75E
:105A100045FBB0FA80F0400908BD08B5FFF71FFB51
:105A2000B0FA80F0400908BD08B5FFF7DCFAB0FA1B
:105A300080F0400908BD13B50C460DF10701FFF7D2
:105A40001FF960B19DF8070038B110284FF0010030
:105A500001D12070002002B010BD2070FBE70120B2
:105A6000F9E713B50C460DF10701FFF717F960B11F
:105A70009DF8070038B120284FF0010001D12070B7
:105A8000002002B010BD2070FBE70120F9E708B547
:105A9000FFF742FBB0FA80F0400908BD13B50C4691
:105AA0000DF10701FFF7D0F860B19DF8070038B19C
:105AB00008284FF0010001D12070002002B010BD75
:105AC0002070FBE70120F9E713B50C460DF1070143
:105AD000FFF7EAF960B19DF8070038B120284FF0D0
